:100000000C9434010C945C010C945C010C945C0124
:100010000C945C010C945C010C945C010C945C01EC
:100020000C945C010C945C010C945C0F0C94CE0F4E
:100030000C945C010C945C010C945C010C945C01CC
:100040000C945C010C945C010C945C010C945C01BC
:100050000C94D3090C945C010C945C010C94120F69
:100060000C945C010C945C010C945C010C945C019C
:100070000C945C010C945C010C945C010C945C018C
:100080000C945C010C945C010C945C010C945C017C
:100090000C94FA090C945C010C945C010C945C01C6
:1000A0000C945C010C945C010C945C015B0E600E82
:1000B000650E6F0E790EC30EC30EC30E830E8D0E2A
:1000C000970EA10EAE0EC30EB60ECC14CF14BE14F6
:1000D000C214C614F014F014F014D314D714DB14A3
:1000E000E114E514F014EB1407634236B79BD8A76C
:1000F0001A39685618AEBAAB558C1D3CB7CC57634D
:10010000BD6DEDFD753EF6177231BF000000803FFA
:1001100008000000BE922449123EABAAAA2ABECD16
:10012000CCCC4C3E00000080BEABAAAAAA3E000088
:100130000000BF000000803F000000000008417880
:10014000D3BB4387D1133D190E3CC3BD4282AD2BB7
:100150003E68EC8276BED98FE1A93E4C80EFFFBEAF
:1001600001C4FF7F3F0000000000080B00020202F4
:100170000100090400000102020000052400100132
:1001800005240101010424020605240600010705D7
:10019000810310004009040100020A000000070565
:1001A0000202400000070583024000000403090426
:1001B00012010002EF0201404123368000010102DA
:1001C000030141726475696E6F204C4C43004172AB
:1001D0006475696E6F204C656F6E6172646F0000AC
:1001E000000000240027002A002D0030000000003D
:1001F00000250028002B002E003100000000020026
:10020000090F0000030401000C00000000000000C2
:1002100000000000000000000000000000002300BB
:10022000260029002C002F00040404040403040504
:100230000202020204030202020206060606060683
:100240000404020202040404080201104080401069
:1002500020408040800802040180402010020110EC
:10026000801020404020C11711241FBECFEFDAE0DC
:10027000DEBFCDBF13E0A0E0B1E0EAEDF9E302C0DC
:1002800005900D92A830B107D9F725E0A8E0B3E0BA
:1002900001C01D92A233B207E1F711E0C4E3D1E03F
:1002A00004C02197FE010E94CC1CC333D107C9F7BB
:1002B0000E9485150C94EB1C0C9400004091870360
:1002C000509188032091850330918603421753078C
:1002D000B4F49091E8009570E1F39091E80092FDFC
:1002E00019C08093F1008091870390918803019653
:1002F0008F739927892B19F48EEF8093E8008091F2
:1003000087039091880301969093880380938703D5
:1003100081E0089580E00895CF92DF92EF92FF92FE
:100320000F931F93CF93DF936C017A018B01C0E091
:10033000D0E0CE15DF0589F0D8016D918D01D60191
:10034000ED91FC910190F081E02DC6010995892B7A
:1003500011F47E0102C02196ECCFC701DF91CF914D
:100360001F910F91FF90EF90DF90CF900895CF9362
:10037000DF931F92CDB7DEB76983DC01ED91FC916D
:100380000280F381E02D41E050E0BE016F5F7F4FBE
:1003900009950F90DF91CF91089583E08093E90054
:1003A0008091F200882319F08AE38093E800089591
:1003B000FC018485958597FD0BC09FB7F89482E07A
:1003C0008093E9008091F2009FBF90E0019608952C
:1003D0009FB7F89482E08093E9008091F2009FBF7C
:1003E00090E008950F931F93FC01028513852485E7
:1003F0003585401B510B620B730B77FD02C0808962
:1004000001C080E01F910F910895FC014283538346
:100410006483758386819781A085B185480F591FB4
:100420006A1F7B1F428753876487758708950895E5
:10043000E091E9038091E803E81730F4F0E0E65139
:10044000FC4F808190E008958FEF9FEF0895909189
:10045000E9038091E803981750F4E92FF0E0E651A2
:10046000FC4F208130E09F5F9093E90302C02FEFA3
:100470003FEFC90108958091E80390E02091E903DE
:10048000821B91090895089580E090E0089585ED1C
:100490008093BC008091BC0084FDFCCF1092E703E8
:1004A000089540916003262F30E0240F311D213242
:1004B0003105DCF42091E7032430C9F4FC0180E02D
:1004C00090E0861758F4309160032191DC01A25C22
:1004D000BC4FA30FB11D2C930196F3CF8091600305
:1004E000680F6093600380E0089581E0089582E0E2
:1004F0000895CF92DF92EF92FF920F931F93CF93C5
:10050000DF937C01262F972F8A0180919D038823FA
:1005100091F0C62FD72F6E01C40ED51ECC15DD0568
:1005200071F06991D701ED91FC910190F081E02D7E
:10053000C7010995F3CF642F822F0E945102C80191
:10054000DF91CF911F910F91FF90EF90DF90CF90AF
:100550000895CF93DF931F92CDB7DEB769832091C3
:100560009D032223D1F02091C003203240F021E0EE
:1005700030E0FC013383228380E090E015C080915D
:100580009E03E82FF0E0E156FC4F998190838F5F46
:1005900080939E038093C00305C061E0CE01019665
:1005A0000E94510281E090E00F90DF91CF91089579
:1005B00080913C0390913D03181619062CF4019785
:1005C00090933D0380933C0380913A0390913B03C9
:1005D000181619062CF4019790933B0380933A0365
:1005E0008091380390913903181619062CF401975D
:1005F000909339038093380308958F929F92AF921E
:10060000BF92CF92DF92EF92FF920F931F93CF93FF
:10061000DF935C016B017A0180910B01882309F45F
:100620005BC080919C03882309F456C080918A03A3
:1006300080FF05C08091E00082608093E000E701C8
:1006400010E00AEF83E0882E9AE3992E2097D9F1E3
:100650000E947C1481110AC0015009F43DC061E080
:1006600070E080E090E00E94CC0EF0CF282F30E0C8
:10067000C217D3070CF48C2F4FB7F8948092E9007F
:100680009091E80095FF1DC0282F30E0C21BD30BCE
:10069000F601982F915020F081918093F100FACFCC
:1006A000C20ED31E112319F09092E80009C0809168
:1006B000E80085FD06C09092E80011E0209709F05F
:1006C00010E04FBFC3CF1111C3CF5D9884E6809374
:1006D00089031E141F0444F081E090E0F501938328
:1006E000828380E090E001C0C701DF91CF911F912C
:1006F0000F91FF90EF90DF90CF90BF90AF909F90C1
:100700008F9008950E947C1490E00895CF93DF931A
:100710001F92CDB7DEB7FC018485958597FD05C096
:100720002FEF3FEF358724870BC0CE0101960E9443
:100730005214019719F4898190E002C08FEF9FEF66
:100740000F90DF91CF9108950F931F93CF93DF9375
:100750001F92CDB7DEB78C01FC018485958597FF8C
:100760000EC0CE0101960E945214019719F42981FE
:1007700030E002C02FEF3FEFF80135872487F80102
:10078000848595850F90DF91CF911F910F910895EA
:100790000F931F93CF93DF93EC01EE85FF85309786
:1007A00009F009950E94060F6E837F8388879987D9
:1007B0000A811B812C813D81DC01CB01800F911FBF
:1007C000A21FB31F8A879B87AC87BD87DF91CF911C
:1007D0001F910F9108958F929F92AF92BF92CF92E7
:1007E000DF92EF92FF920F931F93CF93DF93EC0171
:1007F000EE85FF85309709F009950E94060F4B01A1
:100800005C018E016E012EE1C20ED11CE12CF12C97
:1008100089A99AA98E159F0524F1D80153968D9127
:100820009C9154970097C1F0BFEFEB1AFB0ADC01D3
:10083000ED91FC910280F381E02DB501A4010995B1
:10084000882351F0F80183899489DC01ED91FC91B2
:100850000480F581E02D09950E5F1F4F0C151D05D5
:10086000B9F60E94060F6E837F83888799870A8175
:100870001B812C813D81DC01CB01800F911FA21FC8
:10088000B31F8A879B87AC87BD87DF91CF911F916C
:100890000F91FF90EF90DF90CF90BF90AF909F901F
:1008A0008F9008958BE491E00E94211210923703FB
:1008B00010923603809186049091870481309105CF
:1008C00059F02CF4892B79F481E090E007C002976D
:1008D00051F483E090E002C082E090E090938704BE
:1008E00080938604089510928704109286040895D8
:1008F00088E591E00C942112CF92DF92EF92FF9263
:1009000086E691E00E94211210927A0410927B04F4
:1009100010927C0410927D0480916604909167048B
:1009200097FD82C025E043E250E0F894E0917F0417
:10093000F0918004928180917E0480958923828346
:10094000E0918204F09183049181809181048095EB
:1009500089238183E0918204F091830492818091C4
:100960008104809589238283E0918204F09183043D
:10097000918180918104892B8183E0918204F0919F
:100980008304928180918104809589238283CA01A6
:100990000197F1F7E0918204F091830491818091B5
:1009A0008104809589238183E0918204F0918304FE
:1009B000928180918104809589238283E0917F04D4
:1009C000F0918004928180917E04892B82837894B7
:1009D000E0918204F091830460918104C0906E04E0
:1009E000D0906F04E0907004F09071043081362351
:1009F00080917A0490917B04A0917C04B0917D0455
:100A00003111DCC08C159D05AE05BF0508F0D6C0C0
:100A10000196A11DB11D80937A0490937B04A0934D
:100A20007C04B0937D04E2CF8FEF9FEFDC018093D5
:100A3000260390932703A0932803B09329038333BD
:100A40009105A105B1055CF180913C0390913D03B6
:100A5000892B09F068C08091240390912503892B8C
:100A600009F061C00E94060F6093070570930805A6
:100A70008093090590930A0581E090E09093250307
:100A80008093240388EE93E090933D0380933C038E
:100A900084EF91E090933B0380933A0344C0C29764
:100AA000A105B10509F43FC080912403909125036D
:100AB000892BC9F110922503109224030E94060F7E
:100AC000C0900705D0900805E0900905F0900A0550
:100AD000DC01CB018C199D09AE09BF09809320036D
:100AE00090932103A0932203B0932303843F91406A
:100AF000A105B105B0F48FE791E00E942112809129
:100B0000360390913703892B29F010923703109206
:100B1000360309C081E090E0909337038093360359
:100B200002C00E94520480913A0390913B03892BAA
:100B300091F48091240390912503892B61F0109208
:100B40002503109224038FEF9FEF90933B03809334
:100B50003A030E9452048DE891E00E949A1260913B
:100B600026037091270380912803909129030E9406
:100B7000701286E991E00E949A12609120037091B0
:100B8000210380912203909123034AE00E942F12B7
:100B900088EA91E00E949A126091240370912503E3
:100BA000072E000C880B990B0E94701283EB91E0CA
:100BB000FF90EF90DF90CF900C940912C816D906E1
:100BC000EA06FB0608F46BC0F894E0918204F09109
:100BD0008304928180918104892B8283E091820435
:100BE000F0918304918180918104892B8183E0912C
:100BF0008204F0918304928180918104892B828305
:100C0000E0918204F0918304918180918104809528
:100C100089238183E0918204F09183049281809101
:100C20008104809589238283E0917F04F091800480
:100C3000928180917E048095892382837894E091CB
:100C40008204F091830460918104C0906E04D0907E
:100C50006F04E0907004F09071043081362380912D
:100C60007A0490917B04A0917C04B0917D0433239D
:100C700089F08C159D05AE05BF0560F40196A11D98
:100C8000B11D80937A0490937B04A0937C04B0936D
:100C90007D04E3CF8C159D05AE05BF0528F08EEFD2
:100CA0009FEFAFEFBFEFC3CE215009F03ECE0E94C1
:100CB000060FC0907604D0907704E0907804F0900E
:100CC0007904DC01CB018C199D09AE09BF09C090E4
:100CD0007204D0907304E0907404F0907504C81608
:100CE000D906EA06FB0680F5C0907A04D0907B0412
:100CF000E0907C04F0907D04609168047091690438
:100D000080916A0490916B04C616D706E806F9062E
:100D100029F0C61AD70AE80AF90A03C0C12CD12C57
:100D200076010E94E8192DEC3CEC4CEC5DE30E944E
:100D30009F1A0E94B219CB01770FAA0BBB0BC816E2
:100D4000D906EA06FB0650F180917A0490917B0463
:100D5000A0917C04B0917D04409168045091690495
:100D600060916A0470916B0484179507A607B70712
:100D700040F48093680490936904A0936A04B0934C
:100D80006B04409168045091690460916A04709109
:100D90006B04841B950BA60BB70B49CE8FEF9FEF0F
:100DA000AFEFBFE08093680490936904A0936A0456
:100DB000B0936B040E94060F6093760470937704DF
:100DC0008093780490937904BFCF8F929F92AF92D3
:100DD000BF92CF92DF92EF92FF920F931F93CF9328
:100DE000DF9386EB91E00E942112EFE4F2E0649140
:100DF000E0E3F2E0E491F0E0EE0FFF1FE65EFD4F6E
:100E00008591949100E412E42FE030E040E00E94EC
:100E10004015611571058105910539F0DC01CB01A3
:100E20000196A11DB11DBF7003C080E090E0DC0100
:100E300080931C0390931D03A0931E03B0931F0384
:100E4000C0901803D0901903E0901A03F0901B0390
:100E50008C0D9D1DAE1DBF1D80931803909319032B
:100E6000A0931A03B0931B030E94060FC0901403B3
:100E7000D0901503E0901603F0901703DC01CB012E
:100E80008C199D09AE09BF0980931003909311033B
:100E9000A0931203B09313038AEC91E00E949A127C
:100EA00060911003709111038091120390911303CC
:100EB0004AE00E942F1288EE91E00E949A124AE0C6
:100EC00060E375E780E090E00E942F128CEE91E0E5
:100ED0000E9421128091100390911103A09112039E
:100EE000B091130381339547A105B10508F4CCC037
:100EF000609118037091190380911A0390911B035C
:100F00000E94E81920E03CE742E958E40E944019B9
:100F10006B017C0160930C0370930D0380930E03AF
:100F200090930F0320E030E040E450E40E940C1B5B
:100F30002DEC3CEC4CE85FE30E949F1A4B015C01F6
:100F4000A7019601C701B6010E949F1A23E333E36C
:100F500043E750E40E949F1A9B01AC01C501B40114
:100F60000E94CE184B015C0120E030E042E054E4E6
:100F7000C701B6010E949F1A9B01AC01C501B401D3
:100F80000E94CF1822E538EB4EE15FE30E94CF18B4
:100F90009B01AC01609308037093090380930A03DB
:100FA00090930B0360E070E48CE196E40E94CE180D
:100FB00020E030E04AE754E40E94401960932A039D
:100FC00070932B0380932C0390932D03109218039E
:100FD0001092190310921A0310921B030E94060F1D
:100FE0006093140370931503809316039093170373
:100FF0008FEE91E00E949A1260911803709119038C
:1010000080911A0390911B034AE00E942F1284E002
:1010100092E00E949A1287E092E00E949A126091F8
:101020000C0370910D0380910E0390910F0342E029
:101030000E94471384E092E00E949A1280E192E0BD
:101040000E949A12609108037091090380910A032B
:1010500090910B0342E00E94471383EB91E00E94C2
:10106000091281E292E00E949A1260912A03709123
:101070002B0380912C0390912D0342E00E94471393
:1010800083EB91E00E94091281E080939D0380E44C
:101090008093BF0310929E031092C00385EE90E0F0
:1010A0000E9442130E94E51262E370E080E090E04B
:1010B0000E94CC0E83E090E00E949C129091E80385
:1010C0008091E9039817F1F38AE594E00E942702E2
:1010D000D82F80E0C82F8AE594E00E942702C82B11
:1010E000D92B8AE594E00E942702BE0180E090E0BF
:1010F0000E94E81920E030E04AEF52E40E949F1A73
:1011000020E030E040E857E30E949F1A20E030E002
:1011100040EC50E40E94CE1820E030E0A9010E948B
:10112000CF1860932E0370932F0380933003909316
:10113000310381E080939D0380E48093BF0310928C
:101140009E031092C00383EE90E00E9442130E941F
:10115000E51262E370E080E090E00E94CC0E83E054
:1011600090E00E949C129091E8038091E903981707
:10117000F1F38AE594E00E942702D82F20E0C22FE5
:101180008AE594E00E942702C82BD92B8AE594E0D7
:101190000E942702BE0180E090E00E94E81922E54B
:1011A00038EB4FE253E40E949F1A20E030E040E821
:1011B00057E30E949F1A26E636E64BE352E40E946C
:1011C000CE1820E030E0A9010E94CF1860933203CE
:1011D0007093330380933403909335038CE292E051
:1011E0000E94211288E392E00E949A1260913203D9
:1011F00070913303809134039091350341E00E9454
:10120000471388E492E00E949A128BE492E00E94D5
:101210009A1260912E0370912F0380913003909168
:10122000310341E00E94471388E592E0DF91CF91BE
:101230001F910F91FF90EF90DF90CF90BF90AF90F4
:101240009F908F900C942112CF92DF92EF92FF9299
:101250000F931F93CF93DF931F92CDB7DEB7182F55
:10126000062FE42E862F880F8E5F99830E945E01E1
:1012700083E00E945E01F12EC12E9981D92E8C2D22
:101280008F19801798F4F601E7FE02C0849101C01F
:1012900080810E945E01182F80E00E945E01812300
:1012A000FFEFCF1ADF0A8111EACF01C081E00F9072
:1012B000DF91CF911F910F91FF90EF90DF90CF9032
:1012C0000895DF92EF92FF920F931F93CF93DF93D6
:1012D000D82E8A017B01E40EF51EEB01CE15DF0549
:1012E00071F0D7FE03C0FE01849101C088810E9485
:1012F0005E0121968111F2CF8FEF9FEF01C0C801EF
:10130000DF91CF911F910F91FF90EF90DF900895A3
:10131000615030F02091F100FC0120830196F8CF5C
:10132000289884E680939B0308950F931F93CF938F
:10133000DF9300D000D0CDB7DEB78C0180E191E023
:10134000F8019183808381E0808B7787668712869E
:1013500013861486158629833A834B835C830E9407
:10136000060FF8016683778380879187128B018B44
:1013700029813A814B815C81228333834483558365
:10138000DC01CB01820F931FA41FB51F82879387B7
:10139000A487B5870F900F900F900F90DF91CF919A
:1013A0001F910F9108951F920F920FB60F92112463
:1013B0002F933F934F935F936F937F938F939F935D
:1013C000AF93BF93EF93FF93E0918B03F0918C0366
:1013D0000995FF91EF91BF91AF919F918F917F916F
:1013E0006F915F914F913F912F910F900FBE0F9092
:1013F0001F9018951F920F920FB60F9211242F93E2
:101400003F934F935F936F937F938F939F93AF938C
:10141000BF93EF93FF938091B900887F803609F4E2
:101420009CC068F5883209F45BC090F4803109F4FF
:1014300054C038F4882309F4F6C0883009F44DC04C
:10144000F6C0883109F44CC0803209F45DC0EFC0A9
:10145000803409F468C048F4803309F455C08833F7
:1014600009F0E5C08093E503D8C0803509F44FC08A
:10147000883509F45DC0883409F0D9C0D6C08839F0
:1014800009F4C7C0A8F4883709F467C038F488366F
:1014900009F463C0803709F460C0C9C0883809F412
:1014A000B8C0803909F45FC0803809F0C0C05BC0A3
:1014B000803B09F486C038F4803A09F466C0883A63
:1014C00009F47FC0B4C0803C09F4A7C0883C09F48B
:1014D000A4C0883B09F48AC0AAC08091E20310C06E
:1014E0009091E4038091E303981770F5E091E40391
:1014F00081E08E0F8093E403F0E0EF53FC4F808196
:101500008093BB0085EC86C08093E5038EC0E0919C
:10151000E40381E08E0F8093E4038091BB00F0E050
:10152000EF53FC4F80839091E4038091E3036EC0FE
:10153000E091E40381E08E0F8093E4038091BB008F
:10154000F0E0EF53FC4F80838091E60381116DC082
:1015500081E08093E10384EA61C083E08093E70344
:1015600010928403CFCF80918403803208F051C061
:10157000E091840381E08E0F809384038091BB000F
:10158000F0E0EC59FC4F8083BDCF85EC8093BC002C
:101590001092E70380918403803230F4E091840359
:1015A000F0E0EC59FC4F10826091840370E0E09110
:1015B0006203F091630384E693E00995109284033B
:1015C00036C084E08093E7031092610310926003B9
:1015D000E0915E03F0915F030995809160038111B2
:1015E00005C081E08093600310923E03E0916103A7
:1015F00081E08E0F80936103F0E0E25CFC4F80811C
:101600008093BB009091610380916003981708F468
:1016100079CF85E88093BC000AC085EC8093BC003C
:101620001092E70304C01092E5030E944702FF9165
:10163000EF91BF91AF919F918F917F916F915F914A
:101640004F913F912F910F900FBE0F901F901895C3
:10165000EF92FF920F931F93CF93DF937B018A0149
:10166000CFEFD0E0BE01681B790B89E00E94340EF9
:10167000BE016E197F0986E00E94340EBE01601B18
:10168000710B85E0DF91CF911F910F91FF90EF904B
:101690000C94340E4F925F926F927F928F929F9232
:1016A000AF92BF92CF92DF92EF92FF920F931F9370
:1016B000CF93DF9300D000D0CDB7DEB74B015C01F4
:1016C00029013A01E982FA820B831C83C801B70120
:1016D0000E94CF1820E030E040E05FE30E949F1AB4
:1016E0006B017C019B01AC01C501B4010E943B1957
:1016F000882309F46EC029813A814B815C81C50140
:10170000B4010E949A1A18160CF469C0A301920140
:10171000C501B4010E943B1987FD69C0A70196016C
:10172000C501B4010E949A1AA7019601181634F552
:10173000C501B4010E94CE1820E030E04FE753E429
:101740000E949F1A4B015C01A701960169817A8171
:101750008B819C810E94CE189B01AC01C501B40114
:101760000E9440190E94B2197B012FEF30E059010D
:10177000A61AB70A6B0100E010E044C0C501B4012D
:101780000E943B1987FF36C0A3019201C501B40135
:101790000E94CE1820E030E04FE753E40E949F1AE9
:1017A0004B015C01A3019201C701B6010E94CE1852
:1017B0009B01AC01C501B4010E9440190E94B219FD
:1017C0007B010FEF10E0061B170B5B01C12CD12C26
:1017D00019C000E010E0AA24AA94B12C0FC000E0C8
:1017E00010E0A12CB12CCC24CA94D12C09C00FEF4D
:1017F00010E002C000E010E0A12CB12CC12CD12CD3
:10180000E12CF12C8BE592E00E949A12B6010D2C8E
:10181000000C880B990B0E94701280E692E00E94E7
:101820009A12B5010B2C000C880B990B0E947012B8
:1018300086E692E00E949A12B801012E000C880BF5
:10184000990B0E9470128CE692E00E949A12B701E6
:10185000FF0C880B990B0E94701283EB91E00E94A1
:101860000912A801B501C6010F900F900F900F90BB
:10187000DF91CF911F910F91FF90EF90DF90CF906C
:10188000BF90AF909F908F907F906F905F904F90A0
:101890000C94280B40E050E060E070E080E090E0C5
:1018A0000C94280B40E050E06FEF70E080E090E097
:1018B0000C94280BBF92CF92DF92EF92FF920F937E
:1018C0001F93CF93DF938AE792E00E942112C09189
:1018D0008604D09187048091840490918504C81770
:1018E000D90751F0D0938504C093840484E195E036
:1018F0009093390380933803809138039091390392
:10190000009709F004C18091360390913703009746
:1019100021F0019709F406C144C1C130D10509F491
:10192000B9C0A4F4CD2B09F03CC160913203709191
:1019300033038091340390913503E12CF12C08ECB2
:1019400011E420E030E040E751E4B4C0C230D105FA
:1019500009F4B3C0C330D10509F023C1609132034B
:101960007091330380913403909135030E94B21932
:10197000072E000C880B990B0E94EA1920E030E03A
:1019800040E751E40E94CE1820E030E04FE753E4F6
:101990000E949F1A20E030E048EC51E40E94401978
:1019A0000E94B2196B017C0160912E0370912F038C
:1019B00080913003909131030E94B219AB014E51D6
:1019C0005109BB24BA94B49EC001B59E900D112458
:1019D00066E470E00E94961C7B01EC0CFD1C60919B
:1019E0002A0370912B0380912C0390912D030E9468
:1019F000B219B69E9001B79E300D11240AE010E096
:101A0000C901B8010E94961CC701860F971FBE012D
:101A10000E94961C6B012AE0269FC001279F900D13
:101A20001124CFEFD0E0BE010E94961C7B0187E815
:101A300092E00E949A12B601DD0C880B990B0E946D
:101A4000701286E992E00E949A12B7010F2C000CE6
:101A5000880B990B0E94701288E992E00E949A12FA
:101A60006AE070E080E090E00E9470128DEE91E0FC
:101A70000E942112BE9CC001BF9C900D1124B80190
:101A80000E94961C8B0189E00E94340EBE01601BEF
:101A9000710B31C060912E0370912F038091300340
:101AA00090913103E12CF12C0CE812E420E030E0BD
:101AB00040EF51E40E944A0B74C060912A03709178
:101AC0002B0380912C0390912D030E94B2192FEFCC
:101AD000269FA001279F500D1124CA016AE070E0E3
:101AE0000E94961CEB0189E00E94340E8FEF90E07B
:101AF000BC016C1B7D0B86E0DF91CF911F910F9194
:101B0000FF90EF90DF90CF90BF900C94340E9C012B
:101B1000245631092D34344028F4895C91098336E8
:101B2000910558F4DF91CF911F910F91FF90EF90A5
:101B3000DF90CF90BF900C944A0CC130D10591F04A
:101B40003CF4CD2B71F540E050E060E070E01CC04B
:101B5000C230D10571F0239721F54FEF50E06FEFC0
:101B600070E012C04FEF50E060E070E080E090E085
:101B70000DC0DF91CF911F910F91FF90EF90DF90FB
:101B8000CF90BF900C94520C8FEF90E0DF91CF91EB
:101B90001F910F91FF90EF90DF90CF90BF900C942A
:101BA000280BDF91CF911F910F91FF90EF90DF9065
:101BB000CF90BF9008953FB7F8948091970390918C
:101BC0009803A0919903B0919A0326B5A89B05C0EC
:101BD0002F3F19F00196A11DB11D3FBFBA2FA92FAC
:101BE000982F8827820F911DA11DB11DBC01CD0129
:101BF00042E0660F771F881F991F4A95D1F7089515
:101C00000E94E61C0F931F93CF93DF931F92CDB7D3
:101C1000DEB782E0898342E450E06AE671E080E862
:101C20000E9461090E948D14DC0112960D911C9195
:101C300013970115110569F0D801ED91FC9102800F
:101C4000F381E02DBE016F5F7F4FC801099597FFBB
:101C500007C089810F90DF91CF911F910F91089557
:101C6000F80100851185E5CF1F93CF93DF93182FDF
:101C7000EB0161E00E940415209711F460E004C0BC
:101C8000CF3FD10539F461E0812FDF91CF911F91D2
:101C90000C94A114E12FF0E0E550FE4FE4914E2F9B
:101CA00050E0FA013197EF30F10508F06CC0EA5AC4
:101CB000FF4F0C94CC1C84B5806884BDC7BD68C040
:101CC00084B5806284BDC8BD63C080918000806897
:101CD00080938000D0938900C093880059C0809180
:101CE0008000806280938000D0938B00C0938A0034
:101CF0004FC080918000886080938000D0938D00D9
:101D0000C0938C0045C080919000806880939000C3
:101D1000D0939900C09398003BC08091900080625E
:101D200080939000D0939B00C0939A0031C0809123
:101D30009000886080939000D0939D00C0939C0099
:101D400027C08091C00080688093C0008091C0004F
:101D50008F7B8093C000C093CF001AC08091C000D9
:101D600080628093C000C093D00012C08091C200F6
:101D700088608093C2008091C2008B7F8093C200F4
:101D8000C093D20005C0C038D1050CF07CCF76CF0F
:101D9000DF91CF911F9108958F929F92AF92BF9242
:101DA000CF92DF92EF92FF926B017C010E94DB0DDC
:101DB0004B015C01C114D104E104F104F1F00E9473
:101DC000DB0DDC01CB0188199909AA09BB09883E02
:101DD0009340A105B10570F321E0C21AD108E108D2
:101DE000F10888EE880E83E0981EA11CB11CC11476
:101DF000D104E104F10419F7DDCFFF90EF90DF90FB
:101E0000CF90BF90AF909F908F9008952FB7F89488
:101E10006091930370919403809195039091960340
:101E20002FBF08951F920F920FB60F9211242F9378
:101E30003F938F939F93AF93BF9380919303909120
:101E40009403A0919503B09196033091920323E0FF
:101E5000230F2D3720F40196A11DB11D05C026E8E2
:101E6000230F0296A11DB11D20939203809393032B
:101E700090939403A0939503B09396038091970356
:101E800090919803A0919903B0919A030196A11D96
:101E9000B11D8093970390939803A0939903B093F7
:101EA0009A03BF91AF919F918F913F912F910F9086
:101EB0000FBE0F901F9018951F920F920FB60F92A2
:101EC00011248F939F938091E1009091E100937F83
:101ED0009093E10083FF0FC01092E90091E090938E
:101EE000EB001092EC0092E39093ED0010929C03B3
:101EF00098E09093F00082FF20C093E09093E90077
:101F00009091F200992319F09AE39093E800909150
:101F10008903992339F09091890391509093890313
:101F2000992389F190919B03992339F090919B0318
:101F3000915090939B03992341F184FF10C08091AD
:101F4000E2008E7E81608093E2008091E1008F7ECE
:101F50008093E10080918A038E7E806111C080FFB2
:101F600016C08091E2008E7E80618093E2008091B5
:101F7000E1008E7E8093E10080918A038E7E8160F5
:101F800080938A0304C05D9ACDCF289AD6CF9F91C3
:101F90008F910F900FBE0F901F9018951F920F9268
:101FA0000FB60F921124CF92DF92EF92FF920F9310
:101FB0001F932F933F934F935F936F937F938F93D1
:101FC0009F93AF93BF93EF93FF93CF93DF93CDB7DF
:101FD000DEB76C97DEBFCDBF1092E9008091E800BC
:101FE00083FFEDC168E0CE0145960E94880982EF2B
:101FF0008093E8008D8987FF05C09091E80090FFED
:10200000FCCF03C09EEF9093E800982F907609F0E4
:10201000C6C09E892F89188D91110CC0803829F473
:1020200080918E038093F10002C01092F100109213
:10203000F10048C1422F50E0512B913051F48111F1
:1020400041C14130510509F03DC180918E038D7F22
:102050000BC0933061F4811135C14130510509F055
:1020600031C180918E03826080938E032BC19530A5
:1020700041F48091E80080FFFCCF20682093E300CA
:1020800021C1963009F05FC0EB8CFC8C1092E90006
:102090001092880310928703123091F510928603F4
:1020A000109285030E94020E99E0BE016F5F7F4F80
:1020B000DB01E92F1D92EA95E9F799831A8391E0F4
:1020C0009E8390EA98879AEF9987209187033091B1
:1020D0008803275F3F4F3C832B838D831092E90059
:1020E0001092880310928703F0928603E092850392
:1020F00049E050E080E00E9461090E94020EE2C0C7
:10210000F0928603E09285030E948D14DC01129602
:10211000ED90FC901397E114F10409F4C0C0D701CD
:10212000ED91FC910480F581E02DBE016B5E7F4F47
:10213000C7010995009719F00CF0C4C0C7C0F7019A
:10214000E084F184E8CF973009F4C0C0983021F4DE
:1021500081E08093F100B6C0993009F0B3C083707C
:1021600009F0B4C0E7E1F1E081E021E036E39081DD
:10217000992361F08093E9002093EB009191909373
:10218000EC003093ED008F5F873089F78EE7809306
:10219000EA001092EA008F8980939C0393C08B8D94
:1021A0009C8D1092E90010928803109287039093FF
:1021B000860380938503898D811156C08E899D8900
:1021C000913A59F4813209F081C047E050E064E06F
:1021D00071E080E00E94610975C0913209F076C01B
:1021E000833289F4888D90E0982F88272F89822B5D
:1021F000A0E0B0E08093000190930101A093020160
:10220000B09303015FC0803269F48091E80082FFDF
:10221000FCCF67E084E091E00E9488098BEF809317
:10222000E80006C0823209F04DC08F8980930B010F
:1022300080918D03882319F0EEEFFAE002C0E0E010
:10224000F8E08091040190910501A0910601B09100
:102250000701803B9440A105B10509F07BC0809146
:102260000B0180FF93C076C00E948D14DC01129692
:102270000D911C9113970115110541F1D801ED91B4
:10228000FC910190F081E02DBE016B5E7F4FC80193
:102290000995811117C0F80100851185ECCF113027
:1022A00009F44EC0133091F48F89882309F445C096
:1022B000823081F440E860E18EEC91E00E942409D4
:1022C000882321F08EEF8093E80079C081E280932B
:1022D000EB0075C0813029F440E86BE082EC91E0BE
:1022E000EDCF833099F70E948D14DC011296ED90AA
:1022F000FC9013978E010F5F1F4F6801E114F104EA
:1023000079F0D701ED91FC910680F781E02DB801BD
:10231000C7010995080F111DF701E084F184EECF84
:10232000D8011C92F60101900020E9F73197BF0116
:102330006C197D0940E0C601C1CF6CEA71E002C0B2
:1023400060EB71E06115710509F2FB01449150E009
:1023500080E840CF0FB6F894A8958091600088611E
:1023600080936000109260000FBEA895EE3F2AE0B7
:10237000F20739F08091FE0A9091FF0A91838083E1
:10238000A1CF1092FF0A1092FE0A9CCFEE3F8AE086
:10239000F80731F0808191819093FF0A8093FE0AC3
:1023A00087E797E7918380839BE088E10FB6F894F5
:1023B000A895809360000FBE9093600083CF6C96C9
:1023C0000FB6F894DEBF0FBECDBFDF91CF91FF9166
:1023D000EF91BF91AF919F918F917F916F915F919D
:1023E0004F913F912F911F910F91FF90EF90DF90B0
:1023F000CF900F900FBE0F901F901895E0910A0498
:10240000F0910B040190F081E02D682F8AE094E0B8
:102410000994BC01009791F0FC0101900020E9F7BC
:102420003197AF01481B590BE0910A04F0910B045E
:102430000280F381E02D8AE094E0099480E090E04E
:102440000895CF93DF930E940912EC0183EB91E092
:102450000E9409128C0F9D1FDF91CF9108958F92DA
:102460009F92AF92BF920F931F93CF93DF93CDB7FD
:10247000DEB7A1970FB6F894DEBF0FBECDBF19A28D
:10248000423008F44AE08E010F5D1F4F842E912CDC
:10249000A12CB12CA50194010E94AA1CE62FB90120
:1024A000CA0101501109EA3014F4E05D01C0E95C91
:1024B000D801EC93232B242B252B61F7C8010E9414
:1024C0000912A1960FB6F894DEBF0FBECDBFDF9103
:1024D000CF911F910F91BF90AF909F908F900895D3
:1024E000CF92DF92EF92FF92CF93DF9397FF19C0C5
:1024F0006B017C018DE20E94FE11EC0166277727BB
:10250000CB016C197D098E099F094AE00E942F12A8
:102510008C0F9D1FDF91CF91FF90EF90DF90CF90B8
:1025200008954AE0DF91CF91FF90EF90DF90CF9038
:102530000C942F120C9409129091E7039111FCCF87
:10254000813208F080E291E09093E7039093E603F4
:102550002FEF2093E5031092E403280F2093E30369
:102560009093E2039091E20390689093E20390913C
:10257000E103913061F41092E1039091E2039093B2
:10258000BB009091BC0093FDF8CF95EC01C095EE97
:102590009093BC009091E7039130E1F39091E403B4
:1025A000981710F48091E403A1ECB3E02AEE33E035
:1025B000F9019E2F921B981718F49D919193F9CFD2
:1025C0001092E9038093E80308952091C00390914D
:1025D000BF03213208F04AC08091E7038111FCCF8C
:1025E00032E03093E70331E03093E6033FEF30937E
:1025F000E5031092E4032093E303AFE9B3E041EC79
:1026000053E0FA013E2F341B321718F43D913193F9
:10261000F9CF1092E2032091E203990F922B90934D
:10262000E2039091E103913061F41092E103909103
:10263000E2039093BB009091BC0093FDF8CF95EC22
:1026400001C095EE9093BC009091E7039230E1F3C6
:102650009091E5039F3F79F08091E503803241F04E
:102660008091E503803331F084E005C081E003C050
:1026700082E001C083E010929E031092C00310928A
:102680009D030895682F8AE594E00C94A9024F9267
:102690005F926F927F928F929F92AF92BF92CF92F2
:1026A000DF92EF92FF926B017C01B42E9B01AC0193
:1026B0000E945C1B882319F08BEF92E027C0260153
:1026C0003701E89477F82FEF3FEF4FE75FE7C3015B
:1026D000B2010E945C1B81110DC02FEF3FEF4FE74D
:1026E0005FE7C301B2010E943B1918161CF48FEF7B
:1026F00092E00CC02FEF3FEF4FE75FE4C701B60158
:102700000E949A1A181684F483E093E0FF90EF90E9
:10271000DF90CF90BF90AF909F908F907F906F9001
:102720005F904F900C9409122FEF3FEF4FE75FEC53
:10273000C701B6010E943B1987FDE6CF20E030E0DB
:10274000A901C701B6010E943B1987FF09C08DE2AC
:102750000E94FE114C01F7FAF094F7F8F09402C0D1
:10276000812C912CA12C60E070E080E09FE3AB1401
:1027700041F020E030E040E251E40E944019A3948F
:10278000F6CF9B01AC01C701B6010E94CF182B0107
:102790003C010E94B9196B017C010E94E8199B0160
:1027A000AC01C301B2010E94CE182B013C014AE0EA
:1027B000C701B6010E942F127C01E80CF91CBB2056
:1027C00029F08EE20E94FE11E80EF91EDB2CDD20BE
:1027D00021F120E030E040E251E4C301B2010E9467
:1027E0009F1A2B013C010E94B9194B01A12CB12C5D
:1027F0004AE0C501B4010E942F12E80EF91EC5017E
:10280000B4010E94E8199B01AC01C301B2010E940E
:10281000CE182B013C01DA94DACFC701FF90EF907C
:10282000DF90CF90BF90AF909F908F907F906F90F0
:102830005F904F900895CF93DF93ABE9B4E0FD0133
:10284000C191D191209741F049895A89EC01298998
:102850003A894217530711F1D4E0E93BFD0781F7AC
:1028600020E030E04D915D91452B89F4220F331F1C
:10287000F901E857FB4F948B838B8091B9049091B9
:10288000BA0401969093BA048093B90407C02F5FED
:102890003F4F2F30310531F780E001C081E0DF91FB
:1028A000CF910895FC0180919C03811103C08FEFAB
:1028B0009FEF08959FB7F89482E08093E9002091FC
:1028C000F20030E01216130614F421E030E0211576
:1028D000310559F0289884E680939B038091F1009C
:1028E00080838091F200882319F09FBFC901089569
:1028F0008BE68093E800F9CF2FB7F89483E08093BC
:10290000E9009091E800892F807295FF04C09091B2
:10291000F20080E4891B2FBF089580911705811173
:102920000DC082E08093130584E08093140510921B
:1029300016051092150581E08093170583E195E057
:102940000895362F90E0FC01E550FE4F4491FC01C4
:10295000E95BFD4F2491FC01E85DFD4F84918823E4
:1029600009F451C04423E1F150E0FA013197EF300E
:10297000F105B0F5EB59FF4F0C94CC1C9091800001
:102980009F7707C0909180009F7D03C09091800049
:10299000977F9093800024C094B59F7702C094B530
:1029A0009F7D94BD1DC0909190009F7707C090912E
:1029B00090009F7D03C090919000977F909390002E
:1029C0000FC09091C0009F7703C09091C0009F7D81
:1029D0009093C00005C09091C200977F9093C20071
:1029E000E82FF0E0EE0FFF1FE351FE4FA591B491E9
:1029F0008FB7F894EC91311103C020952E2301C0BC
:102A00002E2B2C938FBF0895CF93DF9390E0FC0182
:102A1000E95BFD4F2491FC01E85DFD4F8491882323
:102A200061F190E0880F991FFC01E152FE4FC591C2
:102A3000D491FC01E351FE4FA591B491611109C0FD
:102A40009FB7F8948881209582238883EC912E2368
:102A50000BC0623061F49FB7F8943881822F809563
:102A600083238883EC912E2B2C939FBF06C08FB7B6
:102A7000F894E8812E2B28838FBFDF91CF910895A2
:102A8000CF92DF92EF92FF920F931F93E82FF92FCF
:102A900005C0015011092109310961F19081962386
:102AA0009417B9F305C0015011092109310911F139
:102AB000908196239413F7CFC12CD12CE12CF12CCB
:102AC0000AC08FEFC81AD80AE80AF80A0C151D05C3
:102AD0002E053F0579F080818623841791F36C2DB4
:102AE0007D2D8E2D9F2D1F910F91FF90EF90DF90E8
:102AF000CF90089560E070E080E090E01F910F912A
:102B0000FF90EF90DF90CF900895789484B5826025
:102B100084BD84B5816084BD85B5826085BD85B581
:102B2000816085BD80916E00816080936E001092FF
:102B3000810080918100826080938100809181007A
:102B4000816080938100809180008160809380000B
:102B500080919100826080939100809191008160CA
:102B6000809391008091900081608093900080918B
:102B7000C10084608093C1008091C1008260809315
:102B8000C1008091C10081608093C1008091C30029
:102B900081608093C3008091C00082608093C000F8
:102BA0008091C20081608093C20080917A0084602D
:102BB00080937A0080917A00826080937A0080917D
:102BC0007A00816080937A0080917A008068809397
:102BD0007A0010929C0310928E0310928A038091C7
:102BE000D70081608093D70080EA8093D80089B5B0
:102BF000806189BD89B5826089BD09B400FEFDCFC1
:102C000061E070E080E090E00E94CC0E8091D800FE
:102C10008F7C80618093D8008091E000807F8093DA
:102C2000E0008091E1008E7E8093E1008DE0809352
:102C3000E200559A209AEEEFFFE7859194918B3F41
:102C40009C4D19F481E080938D038FEF9FEF90935B
:102C50001704809316048AE992E00E9421128CEAFC
:102C600092E00E949A1285EB92E00E949A1285E00F
:102C700092E00E949A128EEB92E00E9421128AEC5E
:102C800092E00E94211261E089E00E94041561E057
:102C900086E00E94041561E085E00E9404154FEF74
:102CA00050E060E070E080E090E00E94280B68EE69
:102CB00073E080E090E00E94CC0E80E18093810080
:102CC00010928000C1E0C093910380E49FE1909353
:102CD000900380938F03909387008093860081E117
:102CE0008093810088ED92E090938C0380938B0316
:102CF000C0936F0088ED92E00E9421121092E903C8
:102D00001092E80310929E031092C0031092E70302
:102D1000C093E6031092E10361E082E00E94A114F7
:102D200061E083E00E94A1148091B9008E7F8093BE
:102D3000B9008091B9008D7F8093B90088E48093B9
:102D4000B80085E48093BC00C0939D03D0E4D09389
:102D5000BF0310929E031092C0038EEF90E00E947A
:102D600042130E94E5126FE070E080E090E00E9464
:102D7000CC0EC0939D03D093BF0310929E0310927C
:102D8000C00387EE90E00E9442130E94E51281E0AA
:102D900090E00E949C128AE594E00E9427028FEF47
:102DA0009FEFDC018093720490937304A0937404EA
:102DB000B09375040E94E506C0930405C093F10426
:102DC000C093DE04C093CB0480E197E2A0E0B0E0C2
:102DD0008093F6049093F704A093F804B093F90459
:102DE0008091FA049091FB04A091FC04B091FD0441
:102DF000805F984DAF4FBF4F8093FE049093FF04C8
:102E0000A0930005B093010541E050E060E070E060
:102E10004093E3045093E4046093E5047093E60464
:102E20008091E7049091E804A091E904B091EA044C
:102E30000196A11DB11D8093EB049093EC04A09327
:102E4000ED04B093EE044093D0045093D10460930A
:102E5000D2047093D3048091D4049091D504A091AE
:102E6000D604B091D7040196A11DB11D8093D8045A
:102E70009093D904A093DA04B093DB0488EE93E036
:102E8000A0E0B0E08093BD049093BE04A093BF0483
:102E9000B093C0048091C1049091C204A091C30476
:102EA000B091C40488519C4FAF4FBF4F8093C5046D
:102EB0009093C604A093C704B093C80485EE96E02F
:102EC00090930305809302058CE794E09093F004BF
:102ED0008093EF048AE59CE09093DD048093DC040A
:102EE00088E794E09093CA048093C90484EF94E047
:102EF0000E941B1481EE94E00E941B148EEC94E05F
:102F00000E941B148BEB94E00E941B140E944A0C3D
:102F100064E670E080E090E00E94CC0E0E94520CCB
:102F200064E670E080E090E00E94CC0E0E944A0CC3
:102F300064E670E080E090E00E94CC0E0E94520CAB
:102F400064E670E080E090E00E94CC0E0E944A0CA3
:102F500085EE92E00E942112C0E0D0E081EF92E085
:102F60000E94211264E670E080E090E00E94CC0EA6
:102F700088E894E00E94EB03209781F30E94000010
:102F8000EDCF10920D0410920C0488EE93E0A0E0B7
:102F9000B0E080930E0490930F04A0931004B093BC
:102FA000110421E231E030930B0420930A042FEF47
:102FB0003FEF309317042093160410925D04109293
:102FC0005C0480935E0490935F04A0936004B093CC
:102FD000610483E391E090935B0480935A040E9420
:102FE000060F609307057093080580930905909379
:102FF0000A0520E030E0A90160E070E08FE195E093
:103000000E94950920E030E0A90160E070E084EFC3
:1030100094E00E94950920E030E0A90160E070E0B2
:1030200081EE94E00E94950920E030E0A90160E083
:1030300070E08EEC94E00E94950920E030E0A90158
:1030400060E070E08BEB94E00E94950920E030E0B6
:10305000A90160E070E088E894E00E94950985E4A9
:1030600091E090938904809388041092BA0410929E
:10307000B904EBE9F4E01192119284E0E93BF8071E
:10308000D1F710928A0410928B0410928C04109243
:103090008D0480918E0490918F04A0919004B09142
:1030A00091048093920490939304A0939404B0931A
:1030B0009504809186049091870490938504809371
:1030C000840481E090E0909367048093660486E333
:1030D00091E090936D0480936C0480EE95E7A9E0F5
:1030E000B0E080936E0490936F04A0937004B0934B
:1030F000710480E29EE4A0E0B0E0809372049093BB
:103100007304A0937404B093750461E08AE00E9494
:10311000041560E08FE00E94041560E08AE00E94E0
:10312000A114E1E5F2E0E491E0937E04E2E3F2E051
:10313000E491F0E0EE0FFF1FE65EFD4F8591949164
:103140009093800480937F04E6E5F2E0E491E093BD
:103150008104E7E3F2E0E491F0E0EE0FFF1FE65EAA
:10316000FD4F8591949190938304809382048FEF17
:103170009FEFAFEFBFE08093680490936904A09342
:103180006A04B0936B040E94060F609376047093F8
:103190007704809378049093790408955058BB275E
:1031A000AA270E94E6180C94601A0E94521A38F05E
:1031B0000E94591A20F039F49F3F19F426F40C9418
:1031C0004F1A0EF4E095E7FB0C94491AE92F0E9480
:1031D000711A58F3BA17620773078407950720F02E
:1031E00079F4A6F50C94931A0EF4E0950B2EBA2FF1
:1031F000A02D0B01B90190010C01CA01A0011124FD
:10320000FF27591B99F0593F50F4503E68F11A16A8
:10321000F040A22F232F342F4427585FF3CF469539
:1032200037952795A795F0405395C9F77EF41F165B
:10323000BA0B620B730B840BBAF09150A1F0FF0F25
:10324000BB1F661F771F881FC2F70EC0BA0F621F11
:10325000731F841F48F4879577956795B795F79501
:103260009E3F08F0B0CF9395880F08F09927EE0F96
:103270009795879508950E94251A08F481E008958E
:103280000E9454190C94601A0E94591A58F00E9416
:10329000521A40F029F45F3F29F00C94491A511159
:1032A0000C94941A0C944F1A0E94711A68F3992383
:1032B000B1F3552391F3951B550BBB27AA27621732
:1032C0007307840738F09F5F5F4F220F331F441F3F
:1032D000AA1FA9F335D00E2E3AF0E0E832D0915073
:1032E0005040E695001CCAF72BD0FE2F29D0660F60
:1032F000771F881FBB1F261737074807AB07B0E8A3
:1033000009F0BB0B802DBF01FF2793585F4F3AF0A8
:103310009E3F510578F00C94491A0C94941A5F3F23
:10332000E4F3983ED4F3869577956795B795F7952E
:103330009F5FC9F7880F911D9695879597F9089516
:10334000E1E0660F771F881FBB1F621773078407B2
:10335000BA0720F0621B730B840BBA0BEE1F88F7C1
:10336000E09508950E94B9196894B1110C94941ACB
:1033700008950E94791A88F09F5798F0B92F9927DD
:10338000B751B0F0E1F0660F771F881F991F1AF050
:10339000BA95C9F714C0B13091F00E94931AB1E008
:1033A00008950C94931A672F782F8827B85F39F007
:1033B000B93FCCF3869577956795B395D9F73EF4E9
:1033C00090958095709561957F4F8F4F9F4F089591
:1033D000E89409C097FB3EF49095809570956195AF
:1033E0007F4F8F4F9F4F9923A9F0F92F96E9BB2765
:1033F0009395F695879577956795B795F111F8CFE1
:10340000FAF4BB0F11F460FF1BC06F5F7F4F8F4F4B
:103410009F4F16C0882311F096E911C0772321F041
:103420009EE8872F762F05C0662371F096E8862FD9
:1034300070E060E02AF09A95660F771F881FDAF730
:10344000880F9695879597F90895990F0008550F5D
:10345000AA0BE0E8FEEF16161706E807F907C0F01A
:1034600012161306E407F50798F0621B730B840B22
:10347000950B39F40A2661F0232B242B252B21F4FC
:1034800008950A2609F4A140A6958FEF811D811D9C
:10349000089597F99F6780E870E060E008959FEFD6
:1034A00080EC089500240A941616170618060906DB
:1034B000089500240A9412161306140605060895AA
:1034C000092E0394000C11F4882352F0BB0F40F432
:1034D000BF2B11F460FF04C06F5F7F4F8F4F9F4F72
:1034E000089557FD9058440F551F59F05F3F71F0F4
:1034F0004795880F97FB991F61F09F3F79F087955B
:103500000895121613061406551FF2CF4695F1DFE3
:1035100008C0161617061806991FF1CF8695710573
:10352000610508940895E894BB2766277727CB01A7
:1035300097F908950E94251A08F48FEF08950E94C4
:10354000B21A0C94601A0E94521A38F00E94591A4A
:1035500020F0952311F00C94491A0C944F1A112461
:103560000C94941A0E94711A70F3959FC1F3950FF1
:1035700050E0551F629FF001729FBB27F00DB11DF7
:10358000639FAA27F00DB11DAA1F649F6627B00D87
:10359000A11D661F829F2227B00DA11D621F739F70
:1035A000B00DA11D621F839FA00D611D221F749F7E
:1035B0003327A00D611D231F849F600D211D822FC5
:1035C000762F6A2F11249F5750409AF0F1F08823EC
:1035D0004AF0EE0FFF1FBB1F661F771F881F915019
:1035E0005040A9F79E3F510580F00C94491A0C9465
:1035F000941A5F3FE4F3983ED4F3869577956795E8
:10360000B795F795E7959F5FC1F7FE2B880F911D42
:103610009695879597F90895FA01EE0FFF1F30965A
:1036200021053105A1F16115710561F48038BFE311
:103630009B0749F168949038810561F08038BFEFAD
:103640009B0741F099234AF5FF3FE105310521052C
:1036500019F1E8940894E795D901AA2329F4AB2F2E
:10366000BE2FF85FD0F310C0FF5F70F4A695E0F7AF
:10367000F73950F019F0FF3A38F49F779F930DD047
:103680000F9007FC9058089546F00C944F1A60E094
:1036900070E080E89FE308954FE79F775F934F9333
:1036A0003F932F930E940C1C2F913F914F915F915C
:1036B0000E949F1A0C94691B0E94251A880B990B73
:1036C000089529F416F00C94491A0C94931A0C944A
:1036D0004F1A0E94791AA8F39638A0F707F80F92AC
:1036E000E8942BE33AEA48EB5FE70E94B51A0F92A1
:1036F0000F920F924DB75EB70F920E94541CE8EEE6
:10370000F0E00E949B1B4F915F91EF91FF91E59537
:10371000EE1FFF1F49F0FE57E0684427EE0F441FDD
:10372000FA95E1F74195550B0E94CE1B0F9007FECD
:103730000C94C21B0895DF93CF931F930F93FF92B6
:10374000EF92DF927B018C01689406C0DA2EEF01C4
:103750000E94B21AFE01E894A591259135914591F8
:103760005591A6F3EF010E94E618FE019701A8010A
:10377000DA9469F7DF90EF90FF900F911F91CF914E
:10378000DF9108959B01AC0160E070E080E89FE369
:103790000C9440190C94491A0C94881C0E94791AB4
:1037A000D8F39923C9F3940F511DA3F391505040BE
:1037B00094F059F0882332F0660F771F881F9150DC
:1037C0005040C1F79E3F51052CF7880F911D9695EB
:1037D000879597F908955F3FACF0983E9CF0BB2722
:1037E000869577956795B79508F4B1609395C1F77D
:1037F000BB0F58F711F460FFE8CF6F5F7F4F8F4F1B
:103800009F4FE3CF0C94941A16F00C94881C0C94E0
:103810004F1A68940C94491A0E94791AA8F39923B4
:10382000C1F3AEF3DF93CF931F930F93FF92C92F92
:10383000DD2788232AF02197660F771F881FDAF784
:1038400020E030E040E85FEB9FE3883920F0803EE5
:1038500038F021968F770E94CF18E0E1F1E004C0A4
:103860000E94CF18EDE3F1E00E949B1B8B01BE018B
:10387000EC01FB2E6F5771097595771F880B990B1B
:103880000E94EA1928E132E741E35FE30E94B21A9D
:10389000AF2D9801AE01FF900F911F91CF91DF9155
:1038A0000E94E6180C94601AFA01DC01AA0FBB1FF3
:1038B0009B01AC01BF5728F42227332744275078B7
:1038C00020C0B75190F4AB2F00244695379527952B
:1038D000011CA395D2F3002071F0220F331F441F67
:1038E000B395DAF30ED00C94CE1861307105A0E8D0
:1038F0008A07B94630F49B01AC01662777278827F1
:103900009078309621F02083318342835383089549
:103910009F3F31F0915020F4879577956795B79543
:10392000880F911D9695879597F9089597FB072E17
:1039300016F4009407D077FD09D00E94D21C07FC32
:1039400005D03EF4909581959F4F089570956195AF
:103950007F4F0895A1E21A2EAA1BBB1BFD010DC0CB
:10396000AA1FBB1FEE1FFF1FA217B307E407F5072F
:1039700020F0A21BB30BE40BF50B661F771F881F0B
:10398000991F1A9469F760957095809590959B01A1
:10399000AC01BD01CF010895EE0FFF1F0590F4911A
:1039A000E02D0994AA1BBB1B51E107C0AA1FBB1F36
:1039B000A617B70710F0A61BB70B881F991F5A95BB
:1039C000A9F780959095BC01CD01089581E090E024
:0A39D000F8940C94EB1CF894FFCF60
:1039DA00FFFFFFFF00E10000000000000000000000
:1039EA000502F201C80300C1808100000000000046
:1039FA0000B701FD028203CD01D8018603A40300AA
:103A0A00000000A9027902440217023B02270218A9
:103A1A0002000000000502F201EB034C6F6E672002
:103A2A00746F7563682021006C6F6F705F646174D6
:103A3A006153656E64006C6F6F705F726561646973
:103A4A006E6755736572496E74657261637400536B
:103A5A00686F727420746F756368202100746F74C4
:103A6A00616C203A200020707573685F647572611A
:103A7A0074696F6E203A200020707573686564203F
:103A8A003A20000D0A006C6F6F705F72656164699D
:103A9A006E6753656E736F72730050504434324EC2
:103AAA00535F6C6F6F7020282063757272656E7435
:103ABA0074696D65203A2000202F20002029006CAF
:103ACA006F7770756C73656F63637570616E637918
:103ADA00203A20002C2000726174696F203A20007D
:103AEA00636F6E63656E74726174696F6E203A20DB
:103AFA00004169724E6F7465203A2000485455326D
:103B0A0031445F6C6F6F70002054656D706572612F
:103B1A0074757265203A20002043002048756D694B
:103B2A0064697479203A200020250052203A200046
:103B3A002047203A20002042203A20002056414CBB
:103B4A0055455F323535203A20006C6F6F705F52F1
:103B5A0047425F4C454400476C6F62616C204E6F70
:103B6A007465203A200028002F0050726F6A65633E
:103B7A0074203A2045676773746961004275696CFD
:103B8A0064203A200032333A30353A3135004175F3
:103B9A006720313420323031370053657474696ECE
:103BAA00672075702E2E2E004854553231445F73AB
:103BBA00657475700053657474656420757020218E
:103BCA00006C6F6F705F6D61696E006E616E006987
:083BDA006E66006F76660000C4
:00000001FF
