:100000000C9434010C945C010C945C010C945C0124
:100010000C945C010C945C010C945C010C945C01EC
:100020000C945C010C945C010C94D40F0C9446105D
:100030000C945C010C945C010C945C010C945C01CC
:100040000C945C010C945C010C945C010C945C01BC
:100050000C94480C0C945C010C945C010C94C00B47
:100060000C945C010C945C010C945C010C945C019C
:100070000C945C010C945C010C945C010C945C018C
:100080000C945C010C945C010C945C010C945C017C
:100090000C946F0C0C945C010C945C010C945C014E
:1000A0000C945C010C945C010C945C01DA03DD039C
:1000B000CC03D003D403FE03FE03FE03E103E503F8
:1000C000E903EF03F303FE03F90375047A047F04E5
:1000D00089049304DD04DD04DD049D04A704B10458
:1000E000BB04C804DD04D00407634236B79BD8A71D
:1000F0001A39685618AEBAAB558C1D3CB7CC57634D
:10010000BD6DEDFD753EF6177231BF000000803FFA
:1001100008000000BE922449123EABAAAA2ABECD16
:10012000CCCC4C3E00000080BEABAAAAAA3E000088
:100130000000BF000000803F000000000008417880
:10014000D3BB4387D1133D190E3CC3BD4282AD2BB7
:100150003E68EC8276BED98FE1A93E4C80EFFFBEAF
:1001600001C4FF7F3F0000000000000000002400E9
:1001700027002A002D003000000000002500280084
:100180002B002E0031000000000200090F000003C8
:100190000401000C0000000000000000000000004E
:1001A0000000000000080B00020202010009040028
:1001B00000010202000005240010010524010101D4
:1001C00004240206052406000107058103100040EF
:1001D00009040100020A00000007050202400000B5
:1001E000070583024000000403090412010002EF26
:1001F0000201404123368000010102030141726483
:1002000075696E6F204C4C430041726475696E6F66
:10021000204C656F6E6172646F0000000000230067
:10022000260029002C002F00040404040403040504
:100230000202020204030202020206060606060683
:100240000404020202040404080201104080401069
:1002500020408040800802040180402010020110EC
:10026000801020404020C21411241FBECFEFDAE0DE
:10027000DEBFCDBF11E0A0E0B1E0EEE8F3E302C0E5
:1002800005900D92AC34B107D9F723E0ACE4B1E0AE
:1002900001C01D92A637B207E1F711E0C4E3D1E037
:1002A00004C02197FE010E94A619C333D107C9F7E4
:1002B0000E94BB120C94C5190C9400004091D90106
:1002C0005091DA012091D7013091D801421753079C
:1002D000B4F49091E8009570E1F39091E80092FDFC
:1002E00019C08093F1008091D9019091DA010196B3
:1002F0008F739927892B19F48EEF8093E8008091F2
:10030000D9019091DA0101969093DA018093D90195
:1003100081E0089580E008953FB7F8948091D3017B
:100320009091D401A091D501B091D60126B5A89B9A
:1003300005C02F3F19F00196A11DB11D3FBFBA2F77
:10034000A92F982F8827820F911DA11DB11DBC01D7
:10035000CD0142E0660F771F881F991F4A95D1F79C
:1003600008950895FC0142835383648375838681D5
:100370009781A085B185480F591F6A1F7B1F42874F
:1003800053876487758708958091800190918101DA
:10039000181619062CF4019790938101809380011F
:1003A00080917E0190917F01181619062CF4019717
:1003B00090937F0180937E0180917C0190917D01DB
:1003C000181619062CF4019790937D0180937C01F7
:1003D0000895CF92DF92EF92FF920F931F93CF93E6
:1003E000DF936C017A018B01C0E0D0E0CE15DF0510
:1003F00089F0D8016D918D01D601ED91FC910190AC
:10040000F081E02DC6010995892B11F47E0102C00F
:100410002196ECCFC701DF91CF911F910F91FF90F3
:10042000EF90DF90CF9008950F931F93FC0102850A
:10043000138524853585401B510B620B730B77FDAB
:1004400002C0808901C080E01F910F910895089536
:10045000E0912C0280912B02E81730F4F0E0E35D8C
:10046000FD4F808190E008958FEF9FEF0895909168
:100470002C0280912B02981750F4E92FF0E0E35DF5
:10048000FD4F208130E09F5F90932C0202C02FEF40
:100490003FEFC901089580912B0290E020912C023A
:1004A000821B91090895089580E090E0089585EDFC
:1004B0008093BC008091BC0084FDFCCF10922A0286
:1004C00008954091A401262F30E0240F311D2132E0
:1004D0003105DCF420912A022430C9F4FC0180E0CB
:1004E00090E0861758F43091A4012191DC01AE57B9
:1004F000BE4FA30FB11D2C930196F3CF8091A401A1
:10050000680F6093A40180E0089581E0089582E07F
:100510000895CF92DF92EF92FF920F931F93CF93A4
:10052000DF937C01262F972F8A018091E001882399
:1005300091F0C62FD72F6E01C40ED51ECC15DD0548
:1005400071F06991D701ED91FC910190F081E02D5E
:10055000C7010995F3CF642F822F0E946102C80161
:10056000DF91CF911F910F91FF90EF90DF90CF908F
:100570000895CF93DF931F92CDB7DEB769832091A3
:10058000E0012223D1F020910302203240F021E04B
:1005900030E0FC013383228380E090E015C080913D
:1005A000E101E82FF0E0EE51FE4F998190838F5FDB
:1005B0008093E1018093030205C061E0CE010196C2
:1005C0000E94610281E090E00F90DF91CF91089549
:1005D00010927B0110927A018091790290917A02B7
:1005E0008130910559F02CF4892B79F481E090E069
:1005F00007C0029751F483E090E002C082E090E0EF
:1006000090937A0280937902089510927A02109260
:10061000790208950E94C019CF92DF92EF92FF9263
:100620000F931F93CF93DF931F92CDB7DEB7182F91
:10063000062FE42E862F880F8E5F99830E945E011D
:1006400083E00E945E01F12EC12E9981D92E8C2D5E
:100650008F19801798F4F601E7FE02C0849101C05B
:1006600080810E945E01182F80E00E945E0181233C
:10067000FFEFCF1ADF0A8111EACF01C081E00F90AE
:10068000DF91CF911F910F91FF90EF90DF90CF906E
:100690000895DF92EF92FF920F931F93CF93DF9312
:1006A000D82E8A017B01E40EF51EEB01CE15DF0585
:1006B00071F0D7FE03C0FE01849101C088810E94C1
:1006C0005E0121968111F2CF8FEF9FEF01C0C8012B
:1006D000DF91CF911F910F91FF90EF90DF900895E0
:1006E0000F931F93CF93DF931F92CDB7DEB782E0B6
:1006F000898342E450E065EA71E080E80E944903A2
:100700000E94C00FDC0112960D911C9113970115E8
:10071000110569F0D801ED91FC910280F381E02D83
:10072000BE016F5F7F4FC801099597FF07C08981A0
:100730000F90DF91CF911F910F910895F8010085DF
:100740001185E5CF615030F02091F100FC0120834C
:100750000196F8CF289884E68093DE010895362F1D
:1007600090E0FC01EA57FE4F4491FC01E95BFD4F2C
:100770002491FC01E85DFD4F8491882309F451C068
:100780004423E1F150E0FA013197EF30F105B0F583
:10079000EA5AFF4F0C94A619909180009F7707C0EA
:1007A000909180009F7D03C090918000977F9093EF
:1007B000800024C094B59F7702C094B59F7D94BDFE
:1007C0001DC0909190009F7707C0909190009F7DF1
:1007D00003C090919000977F909390000FC09091EC
:1007E000C0009F7703C09091C0009F7D9093C00090
:1007F00005C09091C200977F9093C200E82FF0E06F
:10080000EE0FFF1FE858FE4FA591B4918FB7F894F3
:10081000EC91311103C020952E2301C02E2B2C9377
:100820008FBF0895CF93DF9390E0FC01E95BFD4F0C
:100830002491FC01E85DFD4F8491882361F190E0F3
:10084000880F991FFC01E659FE4FC591D491FC0118
:10085000E858FE4FA591B491611109C09FB7F89473
:100860008881209582238883EC912E230BC06230EF
:1008700061F49FB7F8943881822F80958323888311
:10088000EC912E2B2C939FBF06C08FB7F894E88174
:100890002E2B28838FBFDF91CF9108951F93CF9385
:1008A000DF93182FEB0161E00E941204209711F4EE
:1008B00060E004C0CF3FD10539F461E0812FDF91C2
:1008C000CF911F910C94AF03E12FF0E0EA57FE4F58
:1008D000E4914E2F50E0FA013197EF30F10508F026
:1008E0006CC0EB59FF4F0C94A61984B5806884BD89
:1008F000C7BD68C084B5806284BDC8BD63C0809137
:100900008000806880938000D0938900C093880025
:1009100059C080918000806280938000D0938B00CA
:10092000C0938A004FC080918000886080938000CF
:10093000D0938D00C0938C0045C08091900080685A
:1009400080939000D0939900C09398003BC0809111
:100950009000806280939000D0939B00C0939A0097
:1009600031C080919000886080939000D0939D006A
:10097000C0939C0027C08091C00080688093C00015
:100980008091C0008F7B8093C000C093CF001AC0BD
:100990008091C00080628093C000C093D00012C0DC
:1009A0008091C20088608093C2008091C2008B7FDA
:1009B0008093C200C093D20005C0C038D1050CF0AE
:1009C0007CCF76CFDF91CF911F910895EF92FF9268
:1009D0000F931F93CF93DF937B018A01CFEFD0E07A
:1009E000BE01681B790B89E00E944E04BE016E199E
:1009F0007F0986E00E944E04BE01601B710B85E0FA
:100A0000DF91CF911F910F91FF90EF900C944E04C6
:100A10002F923F924F925F926F927F928F929F920E
:100A2000AF92BF92CF92DF92EF92FF920F931F93FC
:100A3000CF93DF93CDB7DEB728970FB6F894DEBF1C
:100A40000FBECDBF4B015C0129013A01EB82FC8254
:100A50000D831E83C801B7010E94D01520E030E04D
:100A600040E05FE30E94A0176B017C019B01AC0199
:100A7000C501B4010E943C16882309F46EC02B8185
:100A80003C814D815E81C501B4010E949B171816FF
:100A90000CF469C0A3019201C501B4010E943C1687
:100AA00087FD6AC0A7019601C501B4010E949B178A
:100AB000A7019601181634F5C501B4010E94CF159F
:100AC00020E030E04FE753E40E94A0174B015C01A7
:100AD000A70196016B817C818D819E810E94CF153B
:100AE0009B01AC01C501B4010E9441160E94B316DE
:100AF0007A8369832FEF30E01901261A370A1886A6
:100B00001F8242C0C501B4010E943C1687FF3CC051
:100B1000A3019201C501B4010E94CF1520E030E08D
:100B20004FE753E40E94A0174B015C01A30192011F
:100B3000C701B6010E94CF159B01AC01C501B401EC
:100B40000E9441160E94B3161B012FEF30E0A9014D
:100B5000461B570B58874F8315C018861F822224C7
:100B60002A94312C0FC018861F82212C312C8FEF34
:100B700090E09A83898308C0EFEFF0E0F887EF8375
:100B8000212C312C1A8219824F815885B10189811B
:100B90009A8128960FB6F894DEBF0FBECDBFDF91C5
:100BA000CF911F910F91FF90EF90DF90CF90BF906A
:100BB000AF909F908F907F906F905F904F903F90FD
:100BC0002F900C94E60440E050E060E070E080E09C
:100BD00090E00C94E60440E050E06FEF70E080E0BD
:100BE00090E00C94E6048F929F92AF92BF92EF92A6
:100BF000FF920F931F93CF93DF93C0917902D0910F
:100C00007A028091770290917802C817D90751F043
:100C1000D0937802C093770284E195E090937D01B0
:100C200080937C0180917C0190917D01009709F077
:100C3000B0C080917A0190917B01009721F00197DB
:100C400009F4AFC0F0C0C130D10509F47FC0A4F4ED
:100C5000CD2B09F0E8C06091760170917701809109
:100C6000780190917901E12CF12C08EC11E420E05D
:100C700030E040E751E48AC0C230D10509F477C0C2
:100C8000C330D10509F0CFC0609176017091770132
:100C900080917801909179010E94B316072E000C83
:100CA000880B990B0E94EB1620E030E040E751E4FE
:100CB0000E94CF1520E030E04FE753E40E94A017D8
:100CC00020E030E048EC51E40E9441160E94B31647
:100CD0004B015C016091720170917301809174010C
:100CE000909175010E94B316AB014E515109FF243A
:100CF000FA94F49EC001F59E900D112466E470E014
:100D00000E9492198B01080D191D60916E0170915E
:100D10006F0180917001909171010E94B316F69E4F
:100D20009001F79E300D1124C9016AE070E00E9425
:100D30009219C801860F971FBE010E949219072EB3
:100D4000000C880B990B0E94EB1619C06091720180
:100D5000709173018091740190917501E12CF12CD7
:100D60000CE812E420E030E040EF51E40FC0609165
:100D70006E0170916F018091700190917101E12C71
:100D8000F12C00E211E420E030E0A9010E94080506
:100D90004AC0843691052CF0895C9109833691050F
:100DA00060F4DF91CF911F910F91FF90EF90BF9072
:100DB000AF909F908F900C94E305C130D10591F0D6
:100DC0003CF4CD2B81F540E050E060E070E01DC0C8
:100DD000C230D10571F0239731F54FEF50E06FEF3E
:100DE00070E013C04FEF50E060E070E080E090E012
:100DF0000EC0DF91CF911F910F91FF90EF90BF90A8
:100E0000AF909F908F900C94EB058FEF90E0DF9167
:100E1000CF911F910F91FF90EF90BF90AF909F9057
:100E20008F900C94E604DF91CF911F910F91FF906A
:100E3000EF90BF90AF909F908F9008958F929F9268
:100E4000AF92BF92CF92DF92EF92FF926B017C0143
:100E50000E948C014B015C01C114D104E104F10436
:100E6000F1F00E948C01DC01CB0188199909AA09D3
:100E7000BB09883E9340A105B10570F321E0C21A79
:100E8000D108E108F10888EE880E83E0981EA11CC5
:100E9000B11CC114D104E104F10419F7DDCFFF90B6
:100EA000EF90DF90CF90BF90AF909F908F9008957C
:100EB0002FB7F8946091CF017091D0018091D1014A
:100EC0009091D2012FBF08950F931F93CF93DF937B
:100ED000EC01EE85FF85309709F009950E945807CF
:100EE0006E837F83888799870A811B812C813D814E
:100EF000DC01CB01800F911FA21FB31F8A879B8744
:100F0000AC87BD87DF91CF911F910F9108958F928C
:100F10009F92AF92BF92CF92DF92EF92FF920F9388
:100F20001F93CF93DF93EC01EE85FF85309709F097
:100F300009950E9458074B015C018E016E012EE15C
:100F4000C20ED11CE12CF12C89A99AA98E159F05FE
:100F500024F1D80153968D919C9154970097C1F03C
:100F6000BFEFEB1AFB0ADC01ED91FC910280F381EB
:100F7000E02DB501A4010995882351F0F80183897A
:100F80009489DC01ED91FC910480F581E02D0995B7
:100F90000E5F1F4F0C151D05B9F60E9458076E8392
:100FA0007F83888799870A811B812C813D81DC01A1
:100FB000CB01800F911FA21FB31F8A879B87AC872D
:100FC000BD87DF91CF911F910F91FF90EF90DF9040
:100FD000CF90BF90AF909F908F900895CF92DF9267
:100FE000EF92FF9210926D0210926E0210926F02B9
:100FF000109270028091590290915A0297FD82C01E
:1010000025E043E250E0F894E0917202F09173021F
:10101000928180917102809589238283E09175028B
:10102000F091760291818091740280958923818369
:10103000E0917502F0917602928180917402809520
:1010400089238283E0917502F091760291818091EB
:101050007402892B8183E0917502F091760292816E
:1010600080917402809589238283CA010197F1F7E8
:10107000E0917502F09176029181809174028095E1
:1010800089238183E0917502F091760292818091AB
:101090007402809589238283E0917202F091730239
:1010A000928180917102892B82837894E0917502FC
:1010B000F091760260917402C0906102D090620259
:1010C000E0906302F09064023081362380916D02DB
:1010D00090916E02A0916F02B09170023111AAC07E
:1010E0008C159D05AE05BF0508F0A4C00196A11D95
:1010F000B11D80936D0290936E02A0936F02B09326
:101100007002E2CF8FEF9FEFDC0180936A01909332
:101110006B01A0936C01B0936D0183339105A10520
:10112000B1055CF18091800190918101892B09F0DA
:1011300063C08091680190916901892B09F05CC0BE
:101140000E9458076093FA027093FB028093FC029E
:101150009093FD0281E090E0909369018093680193
:1011600088EE93E0909381018093800184EF91E079
:1011700090937F0180937E013FC0C297A105B10586
:10118000D9F18091680190916901892BA9F11092A0
:101190006901109268010E945807C090FA02D0902D
:1011A000FB02E090FC02F090FD02DC01CB018C1907
:1011B0009D09AE09BF098093640190936501A093D6
:1011C0006601B0936701843F9140A105B10590F499
:1011D00080917A0190917B01892B29F010927B01FB
:1011E00010927A0109C081E090E090937B01809396
:1011F0007A0102C00E94E80280917E0190917F01F5
:10120000892B09F01EC18091680190916901892B99
:1012100009F417C110926901109268018FEF9FEFD6
:1012200090937F0180937E01FF90EF90DF90CF90AD
:101230000C94E802C816D906EA06FB0608F46BC04F
:10124000F894E0917502F091760292818091740297
:10125000892B8283E0917502F091760291818091D1
:101260007402892B8183E0917502F091760292815C
:1012700080917402892B8283E0917502F09176024D
:10128000918180917402809589238183E091750218
:10129000F0917602928180917402809589238283F5
:1012A000E0917202F09173029281809171028095B7
:1012B000892382837894E0917502F091760260919F
:1012C0007402C0906102D0906202E0906302F090DC
:1012D00064023081362380916D0290916E02A0915C
:1012E0006F02B0917002332389F08C159D05AE0515
:1012F000BF0560F40196A11DB11D80936D0290930E
:101300006E02A0936F02B0937002E3CF8C159D051F
:10131000AE05BF0528F08EEF9FEFAFEFBFEFF5CE24
:10132000215009F070CE0E945807C0906902D090F9
:101330006A02E0906B02F0906C02DC01CB018C1928
:101340009D09AE09BF09C0906502D0906602E09089
:101350006702F0906802C816D906EA06FB0680F517
:10136000C0906D02D0906E02E0906F02F09070021B
:1013700060915B0270915C0280915D0290915E02CF
:10138000C616D706E806F90629F0C61AD70AE80AEB
:10139000F90A03C0C12CD12C76010E94E9162DEC6C
:1013A0003CEC4CEC5DE30E94A0170E94B316CB010D
:1013B000770FAA0BBB0BC816D906EA06FB0650F13D
:1013C00080916D0290916E02A0916F02B0917002B7
:1013D00040915B0250915C0260915D0270915E02EF
:1013E00084179507A607B70740F480935B02909394
:1013F0005C02A0935D02B0935E0240915B0250914B
:101400005C0260915D0270915E02841B950BA60BDD
:10141000B70B7BCE8FEF9FEFAFEFBFE080935B0208
:1014200090935C02A0935D02B0935E020E94580705
:101430006093690270936A0280936B0290936C02CE
:10144000BFCFFF90EF90DF90CF9008958F929F9243
:10145000AF92BF92CF92DF92EF92FF920F931F93C2
:10146000CF93DF93EFE4F2E06491E0E3F2E0E49104
:10147000F0E0EE0FFF1FE65EFD4F8591949100E4D2
:1014800012E42FE030E040E00E9476126115710511
:101490008105910539F0DC01CB010196A11DB11D3B
:1014A000BF7003C080E090E0DC0180936001909306
:1014B0006101A0936201B0936301C0905C01D09080
:1014C0005D01E0905E01F0905F01C80ED91EEA1E3A
:1014D000FB1EC0925C01D0925D01E0925E01F09231
:1014E0005F010E9458078090580190905901A09088
:1014F0005A01B0905B01DC01CB0188199909AA0956
:10150000BB098093540190935501A0935601B09369
:10151000570181339547A105B10508F47AC0C70189
:10152000B6010E94E91620E03CE742E958E40E9437
:1015300041166B017C0160935001709351018093BF
:1015400052019093530120E030E040E450E40E94C7
:101550000D182DEC3CEC4CE85FE30E94A0174B010A
:101560005C01A7019601C701B6010E94A01723E301
:1015700033E343E750E40E94A0179B01AC01C5018F
:10158000B4010E94CF154B015C0120E030E042E045
:1015900054E4C701B6010E94A0179B01AC01C5012C
:1015A000B4010E94D01522E538EB4EE15FE30E94C2
:1015B000D0159B01AC0160934C0170934D01809359
:1015C0004E0190934F0160E070E48CE196E40E943C
:1015D000CF1520E030E04AE754E40E9441166093C2
:1015E0006E0170936F01809370019093710110925E
:1015F0005C0110925D0110925E0110925F010E94E9
:101600005807609358017093590180935A01909341
:101610005B0181E08093E00180E4809302021092FC
:10162000E1011092030285EE90E00E94840F0E9477
:10163000270F62E370E080E090E00E941E0783E0E5
:1016400090E00E94DE0E90912B0280912C02981760
:10165000F1F38DE492E00E943702D82F80E0C82F8A
:101660008DE492E00E943702C82BD92B8DE492E0E2
:101670000E943702BE0180E090E00E94E91620E05F
:1016800030E04AEF52E40E94A01720E030E040E84A
:1016900057E30E94A01720E030E040EC50E40E94A5
:1016A000CF1520E030E0A9010E94D01560937201AF
:1016B00070937301809374019093750181E080931E
:1016C000E00180E4809302021092E1011092030293
:1016D00083EE90E00E94840F0E94270F62E370E087
:1016E00080E090E00E941E0783E090E00E94DE0E02
:1016F00090912B0280912C029817F1F38DE492E0E7
:101700000E943702D82F20E0C22F8DE492E00E9481
:101710003702C82BD92B8DE492E00E943702BE011C
:1017200080E090E00E94E91622E538EB4FE253E4B6
:101730000E94A01720E030E040E857E30E94A01785
:1017400026E636E64BE352E40E94CF1520E030E077
:10175000A9010E94D0156093760170937701809360
:10176000780190937901DF91CF911F910F91FF90B4
:10177000EF90DF90CF90BF90AF909F908F900895A3
:101780001F920F920FB60F9211242F933F938F93B6
:101790009F93AF93BF938091CF019091D001A0917F
:1017A000D101B091D2013091CE0123E0230F2D372A
:1017B00020F40196A11DB11D05C026E8230F029655
:1017C000A11DB11D2093CE018093CF019093D00134
:1017D000A093D101B093D2018091D3019091D40113
:1017E000A091D501B091D6010196A11DB11D8093A4
:1017F000D3019093D401A093D501B093D601BF91AA
:10180000AF919F918F913F912F910F900FBE0F90AD
:101810001F9018950F931F93CF93DF9300D000D0A4
:10182000CDB7DEB78C0180E191E0F8019183808330
:1018300081E0808B778766871286138614861586EB
:1018400029833A834B835C830E945807F80166839F
:10185000778380879187128B018B29813A814B8115
:101860005C812283338344835583DC01CB01820F67
:10187000931FA41FB51F82879387A487B5870F90F6
:101880000F900F900F90DF91CF911F910F910895BE
:101890001F920F920FB60F9211242F933F934F93E5
:1018A0005F936F937F938F939F93AF93BF93EF93C8
:1018B000FF93E091C901F091CA010995FF91EF9161
:1018C000BF91AF919F918F917F916F915F914F9158
:1018D0003F912F910F900FBE0F901F9018951F9260
:1018E0000F920FB60F9211242F933F934F935F9354
:1018F0006F937F938F939F93AF93BF93EF93FF93D8
:101900008091B900887F803609F49CC068F58832E0
:1019100009F45BC090F4803109F454C038F4882392
:1019200009F4F6C0883009F44DC0F6C0883109F4D6
:101930004CC0803209F45DC0EFC0803409F468C047
:1019400048F4803309F455C0883309F0E5C080932A
:101950002802D8C0803509F44FC0883509F45DC02D
:10196000883409F0D9C0D6C0883909F4C7C0A8F4B2
:10197000883709F467C038F4883609F463C08037C3
:1019800009F460C0C9C0883809F4B8C0803909F4C6
:101990005FC0803809F0C0C05BC0803B09F486C0DE
:1019A00038F4803A09F466C0883A09F47FC0B4C0BC
:1019B000803C09F4A7C0883C09F4A4C0883B09F422
:1019C0008AC0AAC08091250210C090912702809100
:1019D0002602981770F5E091270281E08E0F809320
:1019E0002702F0E0EC5FFD4F80818093BB0085EC27
:1019F00086C0809328028EC0E091270281E08E0F7E
:101A0000809327028091BB00F0E0EC5FFD4F808364
:101A100090912702809126026EC0E091270281E01A
:101A20008E0F809327028091BB00F0E0EC5FFD4FAA
:101A300080838091290281116DC081E0809324020E
:101A400084EA61C083E080932A021092C801CFCF5C
:101A50008091C801803208F051C0E091C80181E056
:101A60008E0F8093C8018091BB00F0E0E855FE4FD7
:101A70008083BDCF85EC8093BC0010922A028091B8
:101A8000C801803230F4E091C801F0E0E855FE4F23
:101A900010826091C80170E0E091A601F091A70169
:101AA00088EA91E009951092C80136C084E08093DD
:101AB0002A021092A5011092A401E091A201F091D6
:101AC000A30109958091A401811105C081E0809353
:101AD000A40110928201E091A50181E08E0F809314
:101AE000A501F0E0EE57FE4F80818093BB009091FE
:101AF000A5018091A401981708F479CF85E8809317
:101B0000BC000AC085EC8093BC0010922A0204C07D
:101B1000109228020E945702FF91EF91BF91AF915E
:101B20009F918F917F916F915F914F913F912F91F5
:101B30000F900FBE0F901F901895FC018091DF0150
:101B4000811103C08FEF9FEF08959FB7F89482E053
:101B50008093E9002091F20030E01216130614F48D
:101B600021E030E02115310559F0289884E6809372
:101B7000DE018091F10080838091F200882319F0CA
:101B80009FBFC90108958BE68093E800F9CF2FB776
:101B9000F89483E08093E9009091E800892F8072A7
:101BA00095FF04C09091F20080E4891B2FBF089537
:101BB000CF93DF931F92CDB7DEB76983DC01ED9140
:101BC000FC910280F381E02D41E050E0BE016F5FA7
:101BD0007F4F09950F90DF91CF91089583E0809317
:101BE000E9008091F200882319F08AE38093E800ED
:101BF00008950E94C70D90E00895CF93DF931F9240
:101C0000CDB7DEB7FC018485958597FD05C02FEF24
:101C10003FEF358724870BC0CE0101960E949D0DB2
:101C2000019719F4898190E002C08FEF9FEF0F9028
:101C3000DF91CF9108950F931F93CF93DF931F925E
:101C4000CDB7DEB78C01FC018485958597FF0EC06A
:101C5000CE0101960E949D0D019719F4298130E073
:101C600002C02FEF3FEFF80135872487F801848504
:101C700095850F90DF91CF911F910F910895FC01F1
:101C80008485958597FD0BC09FB7F89482E080937B
:101C9000E9008091F2009FBF90E0019608959FB700
:101CA000F89482E08093E9008091F2009FBF90E079
:101CB00008958F929F92AF92BF92CF92DF92EF9250
:101CC000FF920F931F93CF93DF935C016B017A0117
:101CD00080910B01882309F45BC08091DF01882388
:101CE00009F456C08091DD0180FF05C08091E000BD
:101CF00082608093E000E70110E00AEF83E0882E25
:101D00009AE3992E2097D9F10E94C70D81110AC03C
:101D1000015009F43DC061E070E080E090E00E9475
:101D20001E07F0CF282F30E0C217D3070CF48C2FFA
:101D30004FB7F8948092E9009091E80095FF1DC09C
:101D4000282F30E0C21BD30BF601982F915020F0C2
:101D500081918093F100FACFC20ED31E112319F0A6
:101D60009092E80009C08091E80085FD06C090923D
:101D7000E80011E0209709F010E04FBFC3CF111128
:101D8000C3CF5D9884E6809306031E141F0444F0BD
:101D900081E090E0F5019383828380E090E001C0D0
:101DA000C701DF91CF911F910F91FF90EF90DF90CE
:101DB000CF90BF90AF909F908F90089590912A02FE
:101DC0009111FCCF813208F080E291E090932A02D9
:101DD000909329022FEF2093280210922702280FB8
:101DE000209326029093250290912502906890936B
:101DF000250290912402913061F410922402909176
:101E000025029093BB009091BC0093FDF8CF95EC18
:101E100001C095EE9093BC0090912A029130E1F3BD
:101E200090912702981710F480912702A4E0B2E065
:101E30002DE232E0F9019E2F921B981718F49D9124
:101E40009193F9CF10922C0280932B020895209148
:101E5000030290910202213208F04AC080912A02C6
:101E60008111FCCF32E030932A0231E03093290215
:101E70003FEF309328021092270220932602A2EE11
:101E8000B1E044E052E0FA013E2F341B321718F45F
:101E90003D913193F9CF1092250220912502990F9F
:101EA000922B9093250290912402913061F410922C
:101EB0002402909125029093BB009091BC0093FD69
:101EC000F8CF95EC01C095EE9093BC0090912A025A
:101ED0009230E1F3909128029F3F79F0809128029F
:101EE000803241F080912802803331F084E005C0D7
:101EF00081E003C082E001C083E01092E101109212
:101F000003021092E0010895682F8DE492E00C9492
:101F1000B902CF93DF93AEE8B2E0FD01C191D19158
:101F2000209741F049895A89EC0129893A89421759
:101F3000530711F1D2E0EC3AFD0781F720E030E0E1
:101F40004D915D91452B89F4220F331FF901E5581E
:101F5000FD4F948B838B8091AC029091AD020196E2
:101F60009093AD028093AC0207C02F5F3F4F2F309C
:101F7000310531F780E001C081E0DF91CF91089514
:101F800080910B0381110DC082E08093070384E0F0
:101F90008093080310920A031092090381E0809352
:101FA0000B0387E093E008951F920F920FB60F92F4
:101FB00011248F939F938091E1009091E100937F92
:101FC0009093E10083FF0FC01092E90091E090939D
:101FD000EB001092EC0092E39093ED001092DF0181
:101FE00098E09093F00082FF20C093E09093E90086
:101FF0009091F200992319F09AE39093E800909160
:102000000603992339F090910603915090930603AB
:10201000992389F19091DE01992339F09091DE01A5
:1020200091509093DE01992341F184FF10C080917B
:10203000E2008E7E81608093E2008091E1008F7EDD
:102040008093E1008091DD018E7E806111C080FF70
:1020500016C08091E2008E7E80618093E2008091C4
:10206000E1008E7E8093E1008091DD018E7E8160B3
:102070008093DD0104C05D9ACDCF289AD6CF9F9181
:102080008F910F900FBE0F901F9018951F920F9277
:102090000FB60F921124CF92DF92EF92FF920F931F
:1020A0001F932F933F934F935F936F937F938F93E0
:1020B0009F93AF93BF93EF93FF93CF93DF93CDB7EE
:1020C000DEB76C97DEBFCDBF1092E9008091E800CB
:1020D00083FFEDC168E0CE0145960E94A20382EF26
:1020E0008093E8008D8987FF05C09091E80090FFFC
:1020F000FCCF03C09EEF9093E800982F907609F0F4
:10210000C6C09E892F89188D91110CC0803829F482
:102110008091DC018093F10002C01092F1001092D6
:10212000F10048C1422F50E0512B913051F4811100
:1021300041C14130510509F03DC18091DC018D7FE5
:102140000BC0933061F4811135C14130510509F064
:1021500031C18091DC0182608093DC012BC195301C
:1021600041F48091E80080FFFCCF20682093E300D9
:1021700021C1963009F05FC0EB8CFC8C1092E90015
:102180001092DA011092D901123091F51092D80113
:102190001092D7010E94700399E0BE016F5F7F4FDC
:1021A000DB01E92F1D92EA95E9F799831A8391E003
:1021B0009E8390EA98879AEF99872091D901309170
:1021C000DA01275F3F4F3C832B838D831092E90018
:1021D0001092DA011092D901F092D801E092D70161
:1021E00049E050E080E00E9449030E947003E2C091
:1021F000F092D801E092D7010E94C00FDC01129644
:10220000ED90FC901397E114F10409F4C0C0D701DC
:10221000ED91FC910480F581E02DBE016B5E7F4F56
:10222000C7010995009719F00CF0C4C0C7C0F701A9
:10223000E084F184E8CF973009F4C0C0983021F4ED
:1022400081E08093F100B6C0993009F0B3C083708B
:1022500009F0B4C0E7E1F1E081E021E036E39081EC
:10226000992361F08093E9002093EB009191909382
:10227000EC003093ED008F5F873089F78EE7809315
:10228000EA001092EA008F898093DF0193C08B8D62
:102290009C8D1092E9001092DA011092D90190936E
:1022A000D8018093D701898D811156C08E899D896F
:1022B000913A59F4813209F081C047E050E064E07E
:1022C00071E080E00E94490375C0913209F076C048
:1022D000833289F4888D90E0982F88272F89822B6C
:1022E000A0E0B0E08093000190930101A09302016F
:1022F000B09303015FC0803269F48091E80082FFEF
:10230000FCCF67E084E091E00E94A2038BEF809312
:10231000E80006C0823209F04DC08F8980930B011E
:102320008091DB01882319F0EEEFFAE002C0E0E0D3
:10233000F8E08091040190910501A0910601B0910F
:102340000701803B9440A105B10509F07BC0809155
:102350000B0180FF93C076C00E94C00FDC01129673
:102360000D911C9113970115110541F1D801ED91C3
:10237000FC910190F081E02DBE016B5E7F4FC801A2
:102380000995811117C0F80100851185ECCF113036
:1023900009F44EC0133091F48F89882309F445C0A5
:1023A000823081F440E860E189E092E00E940C0311
:1023B000882321F08EEF8093E80079C081E280933A
:1023C000EB0075C0813029F440E86BE08DEF91E0BF
:1023D000EDCF833099F70E94C00FDC011296ED908B
:1023E000FC9013978E010F5F1F4F6801E114F104F9
:1023F00079F0D701ED91FC910680F781E02DB801CD
:10240000C7010995080F111DF701E084F184EECF93
:10241000D8011C92F60101900020E9F73197BF0125
:102420006C197D0940E0C601C1CF67EE71E002C0C2
:102430006BEE71E06115710509F2FB01449150E00A
:1024400080E840CF0FB6F894A8958091600088612D
:1024500080936000109260000FBEA895EE3F2AE0C6
:10246000F20739F08091FE0A9091FF0A91838083F0
:10247000A1CF1092FF0A1092FE0A9CCFEE3F8AE095
:10248000F80731F0808191819093FF0A8093FE0AD2
:1024900087E797E7918380839BE088E10FB6F89404
:1024A000A895809360000FBE9093600083CF6C96D8
:1024B0000FB6F894DEBF0FBECDBFDF91CF91FF9175
:1024C000EF91BF91AF919F918F917F916F915F91AC
:1024D0004F913F912F911F910F91FF90EF90DF90BF
:1024E000CF900F900FBE0F901F901895CF92DF9254
:1024F000EF92FF920F931F93E82FF92F05C0015021
:1025000011092109310961F1908196239417B9F3DA
:1025100005C0015011092109310911F1908196235B
:102520009413F7CFC12CD12CE12CF12C0AC08FEFE2
:10253000C81AD80AE80AF80A0C151D052E053F0529
:1025400079F080818623841791F36C2D7D2D8E2D5B
:102550009F2D1F910F91FF90EF90DF90CF900895E6
:1025600060E070E080E090E01F910F91FF90EF90AD
:10257000DF90CF900895789484B5826084BD84B54F
:10258000816084BD85B5826085BD85B5816085BD6E
:1025900080916E00816080936E0010928100809126
:1025A00081008260809381008091810081608093AE
:1025B00081008091800081608093800080919100F3
:1025C000826080939100809191008160809391005E
:1025D000809190008160809390008091C100846020
:1025E0008093C1008091C10082608093C10080917E
:1025F000C10081608093C1008091C300816080939D
:10260000C3008091C00082608093C0008091C200AE
:1026100081608093C20080917A00846080937A0008
:1026200080917A00826080937A0080917A00816044
:1026300080937A0080917A00806880937A0010926B
:10264000DF011092DC011092DD018091D7008160E2
:102650008093D70080EA8093D80089B5806189BDD6
:1026600089B5826089BD09B400FEFDCF61E070E0EC
:1026700080E090E00E941E078091D8008F7C8061EE
:102680008093D8008091E000807F8093E00080916B
:10269000E1008E7E8093E1008DE08093E200559A08
:1026A000209AEEEFFFE7859194918B3F9C4D19F4B2
:1026B00081E08093DB0161E089E00E94120461E027
:1026C00086E00E94120461E085E00E9412044FEF50
:1026D00050E060E070E080E090E00E94E60468EE88
:1026E00073E080E090E00E941E0780E1809381000B
:1026F00010928000C1E0C093CD0180E49FE19093EF
:10270000CC018093CB01909387008093860081E178
:102710008093810084EC91E09093CA018093C90179
:10272000C0936F0010922C0210922B021092E101C4
:102730001092030210922A02C093290210922402DE
:1027400061E082E00E94AF0361E083E00E94AF039A
:102750008091B9008E7F8093B9008091B9008D7F00
:102760008093B90088E48093B80085E48093BC002E
:10277000C093E00110E4109302021092E101109264
:1027800003028EEF90E00E94840F0E94270F6FE0FB
:1027900070E080E090E00E941E07C093E00110937B
:1027A00002021092E1011092030287EE90E00E9473
:1027B000840F0E94270F81E090E00E94DE0E8DE4DE
:1027C00092E00E9437028FEF9FEFDC018093650259
:1027D00090936602A0936702B0936802C093F702D9
:1027E000C093E402C093D102C093BE0248EE53E00E
:1027F00060E070E04093E9025093EA026093EB02DC
:102800007093EC028091ED029091EE02A091EF02A4
:10281000B091F00288519C4FAF4FBF4F8093F102AF
:102820009093F202A093F302B093F40201E010E05F
:1028300020E030E00093D6021093D7022093D80214
:102840003093D9028091DA029091DB02A091DC02F0
:10285000B091DD020196A11DB11D8093DE0290931F
:10286000DF02A093E002B093E1020093C302109351
:10287000C4022093C5023093C6028091C702909192
:10288000C802A091C902B091CA020196A11DB11D52
:102890008093CB029093CC02A093CD02B093CE0252
:1028A0004093B0025093B1026093B2027093B302AE
:1028B0008091B4029091B502A091B602B091B70296
:1028C00088519C4FAF4FBF4F8093B8029093B9028D
:1028D000A093BA02B093BB0286E29AE09093F6020C
:1028E0008093F5028EEE97E09093E3028093E202EC
:1028F00083EF95E09093D0028093CF0281EB91E03B
:102900009093BD028093BC0287EE92E00E94890FF3
:1029100084ED92E00E94890F81EC92E00E94890F81
:102920008EEA92E00E94890F0E94E30564E670E05F
:1029300080E090E00E941E070E94EB0564E670E0D4
:1029400080E090E00E941E070E94E30564E670E0CC
:1029500080E090E00E941E070E94EB0564E670E0B4
:1029600080E090E00E941E070E94E30500E010E076
:102970008BE792E00E94870701151105C9F30E94B9
:102980000000F6CF109216031092150388EE93E024
:10299000A0E0B0E08093170390931803A09319036D
:1029A000B0931A0321E231E0309314032093130310
:1029B0002FEF3FEF3093200320931F03109250021C
:1029C00010924F028093510290935202A0935302AF
:1029D000B093540283E391E090934E0280934D02B2
:1029E0000E9458076093FA027093FB028093FC02E6
:1029F0009093FD0220E030E0A90160E070E083E602
:102A000093E00E940A0C20E030E0A90160E070E051
:102A100087EE92E00E940A0C20E030E0A90160E01D
:102A200070E084ED92E00E940A0C20E030E0A90101
:102A300060E070E081EC92E00E940A0C20E030E05F
:102A4000A90160E070E08EEA92E00E940A0C20E0AA
:102A500030E0A90160E070E08BE792E00E940A0C90
:102A600085E491E090937C0280937B021092AD020A
:102A70001092AC02EEE8F2E01192119282E0EC3A90
:102A8000F807D1F710927D0210927E0210927F0219
:102A9000109280028091810290918202A091830223
:102AA000B09184028093850290938602A09387025E
:102AB000B09388028091790290917A029093780283
:102AC0008093770281E090E090935A0280935902BC
:102AD00086E391E09093600280935F0280EE95E739
:102AE000A9E0B0E08093610290936202A093630238
:102AF000B093640280E29EE4A0E0B0E080936502BF
:102B000090936602A0936702B093680261E08AE046
:102B10000E94120460E08FE00E94120460E08AE0EC
:102B20000E94AF03E1E5F2E0E491E0937102E2E399
:102B3000F2E0E491F0E0EE0FFF1FE65EFD4F8591BD
:102B400094919093730280937202E6E5F2E0E4912F
:102B5000E0937402E7E3F2E0E491F0E0EE0FFF1F90
:102B6000E65EFD4F85919491909376028093750275
:102B70008FEF9FEFAFEFBFE080935B0290935C021B
:102B8000A0935D02B0935E020E94580760936902B1
:102B900070936A0280936B0290936C020895505870
:102BA000BB27AA270E94E7150C9461170E945317B0
:102BB00038F00E945A1720F039F49F3F19F426F498
:102BC0000C9450170EF4E095E7FB0C944A17E92F8C
:102BD0000E94721758F3BA176207730784079507A4
:102BE00020F079F4A6F50C9494170EF4E0950B2ED2
:102BF000BA2FA02D0B01B90190010C01CA01A0014F
:102C00001124FF27591B99F0593F50F4503E68F1A9
:102C10001A16F040A22F232F342F4427585FF3CFEA
:102C2000469537952795A795F0405395C9F77EF4BB
:102C30001F16BA0B620B730B840BBAF09150A1F004
:102C4000FF0FBB1F661F771F881FC2F70EC0BA0F8A
:102C5000621F731F841F48F4879577956795B79512
:102C6000F7959E3F08F0B0CF9395880F08F099270D
:102C7000EE0F9795879508950E94261708F481E036
:102C800008950E9455160C9461170E945A1758F027
:102C90000E94531740F029F45F3F29F00C944A1723
:102CA00051110C9495170C9450170E94721768F3E9
:102CB0009923B1F3552391F3951B550BBB27AA27F5
:102CC00062177307840738F09F5F5F4F220F331F2F
:102CD000441FAA1FA9F335D00E2E3AF0E0E832D0F7
:102CE00091505040E695001CCAF72BD0FE2F29D0FA
:102CF000660F771F881FBB1F261737074807AB07CC
:102D0000B0E809F0BB0B802DBF01FF2793585F4F40
:102D10003AF09E3F510578F00C944A170C949517A1
:102D20005F3FE4F3983ED4F3869577956795B79522
:102D3000F7959F5FC9F7880F911D9695879597F92D
:102D40000895E1E0660F771F881FBB1F62177307A6
:102D50008407BA0720F0621B730B840BBA0BEE1FBB
:102D600088F7E09508950E94BA166894B1110C9402
:102D7000951708950E947A1788F09F5798F0B92FF9
:102D80009927B751B0F0E1F0660F771F881F991FA0
:102D90001AF0BA95C9F714C0B13091F00E94941797
:102DA000B1E008950C949417672F782F8827B85FA7
:102DB00039F0B93FCCF3869577956795B395D9F7F8
:102DC0003EF490958095709561957F4F8F4F9F4F02
:102DD0000895E89409C097FB3EF49095809570950E
:102DE00061957F4F8F4F9F4F9923A9F0F92F96E957
:102DF000BB279395F695879577956795B795F111CC
:102E0000F8CFFAF4BB0F11F460FF1BC06F5F7F4F68
:102E10008F4F9F4F16C0882311F096E911C077237A
:102E200021F09EE8872F762F05C0662371F096E883
:102E3000862F70E060E02AF09A95660F771F881F52
:102E4000DAF7880F9695879597F90895990F0008F6
:102E5000550FAA0BE0E8FEEF16161706E807F9076C
:102E6000C0F012161306E407F50798F0621B730B07
:102E7000840B950B39F40A2661F0232B242B252B88
:102E800021F408950A2609F4A140A6958FEF811D2B
:102E9000811D089597F99F6780E870E060E00895CC
:102EA0009FEF80EC089500240A9416161706180662
:102EB0000906089500240A9412161306140605063E
:102EC0000895092E0394000C11F4882352F0BB0FCF
:102ED00040F4BF2B11F460FF04C06F5F7F4F8F4F32
:102EE0009F4F089557FD9058440F551F59F05F3F6D
:102EF00071F04795880F97FB991F61F09F3F79F01C
:102F000087950895121613061406551FF2CF46959D
:102F1000F1DF08C0161617061806991FF1CF86951F
:102F20007105610508940895E894BB276627772703
:102F3000CB0197F908950E94261708F48FEF0895A2
:102F40000E94B3170C9461170E94531738F00E9427
:102F50005A1720F0952311F00C944A170C9450172F
:102F600011240C9495170E94721770F3959FC1F36A
:102F7000950F50E0551F629FF001729FBB27F00D27
:102F8000B11D639FAA27F00DB11DAA1F649F66277C
:102F9000B00DA11D661F829F2227B00DA11D621FCB
:102FA000739FB00DA11D621F839FA00D611D221F85
:102FB000749F3327A00D611D231F849F600D211D69
:102FC000822F762F6A2F11249F5750409AF0F1F0EC
:102FD00088234AF0EE0FFF1FBB1F661F771F881F55
:102FE00091505040A9F79E3F510580F00C944A172C
:102FF0000C9495175F3FE4F3983ED4F3869577954C
:103000006795B795F795E7959F5FC1F7FE2B880FFA
:10301000911D9695879597F90895FA01EE0FFF1F78
:10302000309621053105A1F16115710561F48038F3
:10303000BFE39B0749F168949038810561F08038BF
:10304000BFEF9B0741F099234AF5FF3FE1053105AA
:10305000210519F1E8940894E795D901AA2329F4E8
:10306000AB2FBE2FF85FD0F310C0FF5F70F4A695B2
:10307000E0F7F73950F019F0FF3A38F49F779F9353
:103080000DD00F9007FC9058089546F00C945017FF
:1030900060E070E080E89FE308954FE79F775F93DB
:1030A0004F933F932F930E9408192F913F914F9177
:1030B0005F910E94A0170C94651829F416F00C94E7
:1030C0004A170C9494170C9450170E947A17A8F37F
:1030D0009638A0F707F80F92E8942BE33AEA48EB0A
:1030E0005FE70E94B6170F920F920F924DB75EB72F
:1030F0000F920E945019E8EEF0E00E9497184F914D
:103100005F91EF91FF91E595EE1FFF1F49F0FE578C
:10311000E0684427EE0F441FFA95E1F74195550BFF
:103120000E94CA180F9007FE0C94BE180895DF93F2
:10313000CF931F930F93FF92EF92DF927B018C014D
:10314000689406C0DA2EEF010E94B317FE01E894DE
:10315000A5912591359145915591A6F3EF010E94D6
:10316000E715FE019701A801DA9469F7DF90EF9067
:10317000FF900F911F91CF91DF9108959B01AC01BA
:1031800060E070E080E89FE30C9441160C944A17CD
:103190000C9484190E947A17D8F39923C9F3940FD9
:1031A000511DA3F39150504094F059F0882332F010
:1031B000660F771F881F91505040C1F79E3F510501
:1031C0002CF7880F911D9695879597F908955F3F85
:1031D000ACF0983E9CF0BB27869577956795B795A0
:1031E00008F4B1609395C1F7BB0F58F711F460FF75
:1031F000E8CF6F5F7F4F8F4F9F4FE3CF0C949517B2
:1032000016F00C9484190C94501768940C944A1777
:103210000E947A17A8F39923C1F3AEF3DF93CF93FB
:103220001F930F93FF92C92FDD2788232AF0219740
:10323000660F771F881FDAF720E030E040E85FEB89
:103240009FE3883920F0803E38F021968F770E94E6
:10325000D015E0E1F1E004C00E94D015EDE3F1E00B
:103260000E9497188B01BE01EC01FB2E6F5771096C
:103270007595771F880B990B0E94EB1628E132E7B2
:1032800041E35FE30E94B317AF2D9801AE01FF90B9
:103290000F911F91CF91DF910E94E7150C94611758
:1032A000FA01DC01AA0FBB1F9B01AC01BF5728F438
:1032B000222733274427507820C0B75190F4AB2FF2
:1032C0000024469537952795011CA395D2F300203D
:1032D00071F0220F331F441FB395DAF30ED00C9414
:1032E000CF1561307105A0E88A07B94630F49B011B
:1032F000AC016627772788279078309621F02083C5
:1033000031834283538308959F3F31F0915020F4DD
:10331000879577956795B795880F911D96958795B1
:1033200097F9089597FB072E16F4009407D077FDC0
:1033300009D00E94AC1907FC05D03EF49095819508
:103340009F4F0895709561957F4F0895EE0FFF1F71
:103350000590F491E02D0994AA1BBB1B51E107C015
:10336000AA1FBB1FA617B70710F0A61BB70B881F15
:10337000991F5A95A9F780959095BC01CD010895A4
:0E33800081E090E0F8940C94C519F894FFCF0A
:10338E00FFFFFFFF00E10000000000000000000052
:10339E00B2011402640700C1808100000000000029
:1033AE0000D80D590EF90DEE0D3F0EFD0D1B0E0042
:1033BE00000000B9028902540227024B023702288C
:0C33CE000200000000B20114028707009A
:00000001FF
