:100000000C9434010C945C010C945C010C945C0124
:100010000C945C010C945C010C945C010C945C01EC
:100020000C945C010C945C010C94660D0C94D80D3E
:100030000C945C010C945C010C945C010C945C01CC
:100040000C945C010C945C010C945C010C945C01BC
:100050000C9457080C945C010C945C010C941C0DDE
:100060000C945C010C945C010C945C010C945C019C
:100070000C945C010C945C010C945C010C945C018C
:100080000C945C010C945C010C945C010C945C017C
:100090000C947E080C945C010C945C010C945C0143
:1000A0000C945C010C945C010C945C01D612D91286
:1000B000C812CC12D012FA12FA12FA12DD12E112A0
:1000C000E512EB12EF12FA12F512711376137B138D
:1000D00085138F13D913D913D9139913A313AD1300
:1000E000B713C413D913CC1307634236B79BD8A7F1
:1000F0001A39685618AEBAAB558C1D3CB7CC57634D
:10010000BD6DEDFD753EF6177231BF000000803FFA
:1001100008000000BE922449123EABAAAA2ABECD16
:10012000CCCC4C3E00000080BEABAAAAAA3E000088
:100130000000BF000000803F000000000008417880
:10014000D3BB4387D1133D190E3CC3BD4282AD2BB7
:100150003E68EC8276BED98FE1A93E4C80EFFFBEAF
:1001600001C4FF7F3F0000000000080B00020202F4
:100170000100090400000102020000052400100132
:1001800005240101010424020605240600010705D7
:10019000810310004009040100020A000000070565
:1001A0000202400000070583024000000403090426
:1001B00012010002EF0201404123368000010102DA
:1001C000030141726475696E6F204C4C43004172AB
:1001D0006475696E6F204C656F6E6172646F0000AC
:1001E000000000240027002A002D0030000000003D
:1001F00000250028002B002E003100000000020026
:10020000090F0000030401000C00000000000000C2
:1002100000000000000000000000000000002300BB
:10022000260029002C002F00040404040403040504
:100230000202020204030202020206060606060683
:100240000404020202040404080201104080401069
:1002500020408040800802040180402010020110EC
:100260008010204040209A1611241FBECFEFDAE004
:10027000DEBFCDBF12E0A0E0B1E0ECE2F7E302C0E8
:1002800005900D92AE3EB107D9F725E0AEEEB2E093
:1002900001C01D92A431B207E1F711E0C4E3D1E03F
:1002A00004C02197FE010E94891BC333D107C9F7FF
:1002B0000E9461140C94941B0C940000FC01848532
:1002C000958597FD0BC09FB7F89482E08093E90075
:1002D0008091F2009FBF90E0019608959FB7F89437
:1002E00082E08093E9008091F2009FBF90E0089542
:1002F0000F931F93FC010285138524853585401BD0
:10030000510B620B730B77FD02C0808901C080E046
:100310001F910F910895FC01428353836483758379
:1003200086819781A085B185480F591F6A1F7B1F61
:10033000428753876487758708950895E091CF03B6
:100340008091CE03E81730F4F0E0E053FC4F808159
:1003500090E008958FEF9FEF08959091CF038091E3
:10036000CE03981750F4E92FF0E0E053FC4F2081C2
:1003700030E09F5F9093CF0302C02FEF3FEFC901A2
:1003800008958091CE0390E02091CF03821B9109C4
:100390000895089580E090E0089585ED8093BC0075
:1003A0008091BC0084FDFCCF1092CD030895409154
:1003B0004603262F30E0240F311D21323105DCF4B5
:1003C0002091CD032430C9F4FC0180E090E0861731
:1003D00058F4309146032191DC01AC5DBC4FA30F72
:1003E000B11D2C930196F3CF80914603680F609363
:1003F000460380E0089581E0089582E00895CF9259
:10040000DF92EF92FF920F931F93CF93DF937C01C4
:10041000262F972F8A0180918303882391F0C62F7E
:10042000D72F6E01C40ED51ECC15DD0571F0699174
:10043000D701ED91FC910190F081E02DC701099564
:10044000F3CF642F822F0E94D701C801DF91CF9193
:100450001F910F91FF90EF90DF90CF900895CF9371
:10046000DF931F92CDB7DEB76983209183032223E8
:10047000D1F02091A603203240F021E030E0FC01D1
:100480003383228380E090E015C080918403E82FBD
:10049000F0E0EB57FC4F998190838F5F809384034A
:1004A0008093A60305C061E0CE0101960E94D701AA
:1004B00081E090E00F90DF91CF9108958091220329
:1004C00090912303181619062CF401979093230397
:1004D000809322038091200390912103181619061E
:1004E0002CF40197909321038093200308950E9498
:1004F000861290E00895CF93DF931F92CDB7DEB7B9
:10050000FC018485958597FD05C02FEF3FEF35876A
:1005100024870BC0CE0101960E945C12019719F44A
:10052000898190E002C08FEF9FEF0F90DF91CF9114
:1005300008950F931F93CF93DF931F92CDB7DEB72C
:100540008C01FC018485958597FF0EC0CE01019634
:100550000E945C12019719F4298130E002C02FEF4C
:100560003FEFF80135872487F801848595850F9042
:10057000DF91CF911F910F9108950F931F93CF9308
:10058000DF93EC01EE85FF85309709F009950E9415
:10059000100D6E837F83888799870A811B812C8148
:1005A0003D81DC01CB01800F911FA21FB31F8A8701
:1005B0009B87AC87BD87DF91CF911F910F910895E5
:1005C0008F929F92AF92BF92CF92DF92EF92FF9263
:1005D0000F931F93CF93DF93EC01EE85FF85309748
:1005E00009F009950E94100D4B015C018E016E010E
:1005F0002EE1C20ED11CE12CF12C89A99AA98E15ED
:100600009F0524F1D80153968D919C9154970097A2
:10061000C1F0BFEFEB1AFB0ADC01ED91FC91028007
:10062000F381E02DB501A4010995882351F0F8016B
:1006300083899489DC01ED91FC910480F581E02DA2
:1006400009950E5F1F4F0C151D05B9F60E94100D80
:100650006E837F83888799870A811B812C813D81E6
:10066000DC01CB01800F911FA21FB31F8A879B87DC
:10067000AC87BD87DF91CF911F910F91FF90EF90D5
:10068000DF90CF90BF90AF909F908F9008958BE4B4
:1006900091E00E942B1010921F0310921E03809174
:1006A0001C0390911D038130910559F02CF4892B86
:1006B00079F481E090E007C0029751F483E090E084
:1006C00002C082E090E090931D0380931C03089584
:1006D00010921D0310921C03089588E591E00C947C
:1006E0002B10CF92DF92EF92FF9286E691E00E946C
:1006F0002B10109260041092610410926204109208
:10070000630480914C0490914D0497FD82C025E0D4
:1007100043E250E0F894E0916504F0916604928120
:1007200080916404809589238283E0916804F0912C
:100730006904918180916704809589238183E09188
:100740006804F091690492818091670480958923FF
:100750008283E0916804F09169049181809167043B
:10076000892B8183E0916804F091690492818091E2
:100770006704809589238283CA010197F1F7E0918C
:100780006804F091690491818091670480958923C0
:100790008183E0916804F0916904928180916704FB
:1007A000809589238283E0916504F09166049281AB
:1007B00080916404892B82837894E0916804F0919D
:1007C000690460916704C0905404D0905504E0908F
:1007D0005604F09057043081362380916004909144
:1007E0006104A0916204B09163043111DCC08C15E6
:1007F0009D05AE05BF0508F0D6C00196A11DB11D2F
:100800008093600490936104A0936204B0936304A6
:10081000E2CF8FEF9FEFDC0180930C0390930D03E9
:10082000A0930E03B0930F0383339105A105B10587
:100830005CF18091220390912303892B09F068C019
:1008400080910A0390910B03892B09F061C00E94EB
:10085000100D6093E9047093EA048093EB04909385
:10086000EC0481E090E090930B0380930A0388EE00
:1008700093E0909323038093220384EF91E090937D
:1008800021038093200344C0C297A105B10509F458
:100890003FC080910A0390910B03892BC9F11092FC
:1008A0000B0310920A030E94100DC090E904D0902F
:1008B000EA04E090EB04F090EC04DC01CB018C192D
:1008C0009D09AE09BF098093060390930703A09387
:1008D0000803B0930903843F9140A105B105B0F42A
:1008E0008FE791E00E942B1080911E0390911F03CF
:1008F000892B29F010921F0310921E0309C081E07A
:1009000090E090931F0380931E0302C00E94470350
:100910008091200390912103892B91F480910A0307
:1009200090910B03892B61F010920B0310920A0334
:100930008FEF9FEF90932103809320030E94470342
:100940008DE891E00E94F91160910C0370910D0304
:1009500080910E0390910F030E94FB1186E991E0B4
:100960000E94F911609106037091070380910803BA
:10097000909109034AE00E94E41088EA91E00E9405
:10098000F91160910A0370910B03072E000C880B7C
:10099000990B0E94FB1183EB91E0FF90EF90DF90A9
:1009A000CF900C941310C816D906EA06FB0608F47B
:1009B0006BC0F894E0916804F09169049281809191
:1009C0006704892B8283E0916804F0916904918126
:1009D00080916704892B8183E0916804F091690418
:1009E000928180916704892B8283E0916804F09161
:1009F0006904918180916704809589238183E091C6
:100A00006804F0916904928180916704809589233C
:100A10008283E0916504F091660492818091640480
:100A20008095892382837894E0916804F091690429
:100A300060916704C0905404D0905504E09056042F
:100A4000F0905704308136238091600490916104C6
:100A5000A0916204B0916304332389F08C159D0545
:100A6000AE05BF0560F40196A11DB11D8093600421
:100A700090936104A0936204B0936304E3CF8C1558
:100A80009D05AE05BF0528F08EEF9FEFAFEFBFEFDE
:100A9000C3CE215009F03ECE0E94100DC0905C04E0
:100AA000D0905D04E0905E04F0905F04DC01CB0127
:100AB0008C199D09AE09BF09C0905804D090590403
:100AC000E0905A04F0905B04C816D906EA06FB06CB
:100AD00080F5C0906004D0906104E0906204F090D2
:100AE000630460914E0470914F0480915004909182
:100AF0005104C616D706E806F90629F0C61AD70A21
:100B0000E80AF90A03C0C12CD12C76010E94B91859
:100B10002DEC3CEC4CEC5DE30E9470190E948318B4
:100B2000CB01770FAA0BBB0BC816D906EA06FB064A
:100B300050F18091600490916104A0916204B091A1
:100B4000630440914E0450914F04609150047091A1
:100B5000510484179507A607B70740F480934E0405
:100B600090934F04A0935004B093510440914E04CD
:100B700050914F046091500470915104841B950B67
:100B8000A60BB70B49CE8FEF9FEFAFEFBFE080937F
:100B90004E0490934F04A0935004B09351040E94CC
:100BA000100D60935C0470935D0480935E049093D9
:100BB0005F04BFCF8F929F92AF92BF92CF92DF928E
:100BC000EF92FF920F931F93CF93DF9386EB91E009
:100BD0000E942B10EFE4F2E06491E0E3F2E0E49194
:100BE000F0E0EE0FFF1FE65EFD4F8591949100E46B
:100BF00012E42FE030E040E00E941C146115710502
:100C00008105910539F0DC01CB010196A11DB11DD3
:100C1000BF7003C080E090E0DC01809302039093FA
:100C20000303A0930403B0930503C090FE02D09089
:100C3000FF02E0900003F09001038C0D9D1DAE1D9E
:100C4000BF1D8093FE029093FF02A0930003B09318
:100C500001030E94100DC090FA02D090FB02E090B8
:100C6000FC02F090FD02DC01CB018C199D09AE095C
:100C7000BF098093F6029093F702A093F802B09315
:100C8000F9028AEC91E00E94F9116091F6027091EC
:100C9000F7028091F8029091F9024AE00E94E41074
:100CA00088EE91E00E94F9114AE060E375E780E088
:100CB00090E00E94E4108CEE91E00E942B10809155
:100CC000F6029091F702A091F802B091F9028133F7
:100CD0009547A105B10508F4CCC06091FE02709162
:100CE000FF0280910003909101030E94B91820E057
:100CF0003CE742E958E40E9411186B017C016093C3
:100D0000F2027093F3028093F4029093F50220E0D4
:100D100030E040E450E40E94DD192DEC3CEC4CE85E
:100D20005FE30E9470194B015C01A7019601C701A6
:100D3000B6010E94701923E333E343E750E40E94B5
:100D400070199B01AC01C501B4010E949F174B01B2
:100D50005C0120E030E042E054E4C701B6010E94AB
:100D600070199B01AC01C501B4010E94A01722E5D6
:100D700038EB4EE15FE30E94A0179B01AC0160934A
:100D8000EE027093EF028093F0029093F10260E024
:100D900070E48CE196E40E949F1720E030E04AE77F
:100DA00054E40E9411186093100370931103809310
:100DB0001203909313031092FE021092FF021092FE
:100DC0000003109201030E94100D6093FA027093C9
:100DD000FB028093FC029093FD028FEE91E00E9453
:100DE000F9116091FE027091FF02809100039091D1
:100DF00001034AE00E94E41084E092E00E94F911AD
:100E000087E092E00E94F9116091F2027091F30282
:100E10008091F4029091F50242E00E94251184E055
:100E200092E00E94F91180E192E00E94F911609134
:100E3000EE027091EF028091F0029091F10242E097
:100E40000E94251183EB91E00E94131081E292E051
:100E50000E94F911609110037091110380911203A7
:100E60009091130342E00E94251183EB91E00E94D0
:100E7000131081E08093830380E48093A503109294
:100E800084031092A60385EE90E00E94DF100E947A
:100E9000821062E370E080E090E00E94E21383E061
:100EA00090E00E9439109091CE038091CF03981763
:100EB000F1F380E494E00E94AD01D82F80E0C82FC8
:100EC00080E494E00E94AD01C82BD92B80E494E02B
:100ED0000E94AD01BE0180E090E00E94B91820E0C0
:100EE00030E04AEF52E40E94701920E030E040E820
:100EF00057E30E94701920E030E040EC50E40E947B
:100F00009F1720E030E0A9010E94A017609314030E
:100F100070931503809316039093170381E08093D9
:100F2000830380E48093A503109284031092A603A8
:100F300083EE90E00E94DF100E94821062E370E076
:100F400080E090E00E94E21383E090E00E9439107C
:100F50009091CE038091CF039817F1F380E494E051
:100F60000E94AD01D82F20E0C22F80E494E00E94BF
:100F7000AD01C82BD92B80E494E00E94AD01BE01E5
:100F800080E090E00E94B91822E538EB4FE253E48C
:100F90000E94701920E030E040E857E30E94701989
:100FA00026E636E64BE352E40E949F1720E030E04D
:100FB000A9010E94A01760931803709319038093EE
:100FC0001A0390931B038CE292E00E942B1088E39B
:100FD00092E00E94F91160911803709119038091B9
:100FE0001A0390911B0341E00E94251188E492E0CE
:100FF0000E94F9118BE492E00E94F91160911403B0
:1010000070911503809116039091170341E00E949F
:10101000251188E592E0DF91CF911F910F91FF900C
:10102000EF90DF90CF90BF90AF909F908F900C94F7
:101030002B100F931F93CF93DF9300D000D0CDB729
:10104000DEB78C0180E191E0F8019183808381E03B
:10105000808B778766871286138614861586298388
:101060003A834B835C830E94100DF801668377837B
:1010700080879187128B018B29813A814B815C811A
:101080002283338344835583DC01CB01820F931F7A
:10109000A41FB51F82879387A487B5870F900F90F1
:1010A0000F900F90DF91CF911F910F9108951F9294
:1010B0000F920FB60F9211242F933F934F935F938C
:1010C0006F937F938F939F93AF93BF93EF93FF9310
:1010D000E0916B03F0916C030995FF91EF91BF9143
:1010E000AF919F918F917F916F915F914F913F91C0
:1010F0002F910F900FBE0F901F9018951F920F9277
:101100000FB60F9211242F933F934F935F936F93DA
:101110007F938F939F93AF93BF93EF93FF938091B0
:10112000B900887F803609F49CC068F5883209F4DC
:101130005BC090F4803109F454C038F4882309F47A
:10114000F6C0883009F44DC0F6C0883109F44CC0AF
:10115000803209F45DC0EFC0803409F468C048F4FF
:10116000803309F455C0883309F0E5C08093CB0380
:10117000D8C0803509F44FC0883509F45DC0883483
:1011800009F0D9C0D6C0883909F4C7C0A8F4883797
:1011900009F467C038F4883609F463C0803709F46D
:1011A00060C0C9C0883809F4B8C0803909F45FC08C
:1011B000803809F0C0C05BC0803B09F486C038F4B9
:1011C000803A09F466C0883A09F47FC0B4C0803C14
:1011D00009F4A7C0883C09F4A4C0883B09F48AC07C
:1011E000AAC08091C80310C09091CA038091C9031E
:1011F000981770F5E091CA0381E08E0F8093CA03BF
:10120000F0E0E955FC4F80818093BB0085EC86C0FF
:101210008093CB038EC0E091CA0381E08E0F809350
:10122000CA038091BB00F0E0E955FC4F80839091A8
:10123000CA038091C9036EC0E091CA0381E08E0F9A
:101240008093CA038091BB00F0E0E955FC4F808396
:101250008091CC0381116DC081E08093C70384EA43
:1012600061C083E08093CD0310926A03CFCF809159
:101270006A03803208F051C0E0916A0381E08E0F6A
:1012800080936A038091BB00F0E0E65BFC4F8083B3
:10129000BDCF85EC8093BC001092CD0380916A0392
:1012A000803230F4E0916A03F0E0E65BFC4F10829C
:1012B00060916A0370E0E0914803F09149038AE489
:1012C00093E0099510926A0336C084E08093CD03C1
:1012D0001092470310924603E0914403F0914503B6
:1012E000099580914603811105C081E080934603F2
:1012F00010922403E091470381E08E0F809347030F
:10130000F0E0EC5DFC4F80818093BB00909147033F
:1013100080914603981708F479CF85E88093BC0044
:101320000AC085EC8093BC001092CD0304C01092DB
:10133000CB030E94CD01FF91EF91BF91AF919F919F
:101340008F917F916F915F914F913F912F910F906E
:101350000FBE0F901F901895EF92FF920F931F935F
:10136000CF93DF937B018A01CFEFD0E0BE01681BF2
:10137000790B89E00E944A13BE016E197F0986E04D
:101380000E944A13BE01601B710B85E0DF91CF9173
:101390001F910F91FF90EF900C944A132F923F9260
:1013A0004F925F926F927F928F929F92AF92BF9275
:1013B000CF92DF92EF92FF920F931F93CF93DF9321
:1013C000CDB7DEB728970FB6F894DEBF0FBECDBFFE
:1013D0004B015C0129013A01EB82FC820D831E83E3
:1013E000C801B7010E94A01720E030E040E05FE3B1
:1013F0000E9470196B017C019B01AC01C501B40115
:101400000E940C18882309F472C02B813C814D8105
:101410005E81C501B4010E946B1918160CF46DC0F1
:10142000A3019201C501B4010E940C1887FD6EC092
:10143000A7019601C501B4010E946B19A70196018D
:1014400018163CF5C501B4010E949F1720E030E05A
:101450004FE753E40E9470194B015C01A70196010C
:101460006B817C818D819E810E949F179B01AC01C5
:10147000C501B4010E9411180E9483187B012FEF4F
:1014800030E01901261A370A7A83698318861F8289
:1014900047C0C501B4010E940C1887FF3FC0A301DB
:1014A0009201C501B4010E949F1720E030E04FE790
:1014B00053E40E9470194B015C01A3019201C70122
:1014C000B6010E949F179B01AC01C501B4010E94A7
:1014D00011180E9483181B012FEF30E0A901461B51
:1014E000570B58874F837B011A82198219C01886BF
:1014F0001F8222242A94312C0FC018861F82212C8F
:10150000312C8FEF90E09A83898308C0EFEFF0E0F1
:10151000F887EF83212C312C1A821982E12CF12CCF
:101520008BE592E00E94F91129813A81B901330FCC
:10153000880B990B0E94FB1180E692E00E94F91142
:10154000B101032C000C880B990B0E94FB1186E65D
:1015500092E00E94F9114F815885BA01550F880B0E
:10156000990B0E94FB118CE692E00E94F911B701E1
:10157000FF0C880B990B0E94FB1183EB91E00E94FA
:1015800013104F815885B10189819A8128960FB631
:10159000F894DEBF0FBECDBFDF91CF911F910F91A9
:1015A000FF90EF90DF90CF90BF90AF909F908F9083
:1015B0007F906F905F904F903F902F900C94AC096C
:1015C00040E050E060E070E080E090E00C94AC0916
:1015D000EF92FF920F931F938AE792E00E942B10E5
:1015E00080911E0390911F03009749F0019709F025
:1015F00049C01F910F91FF90EF900C94E00A8091E9
:101600001C0390911D0381309105D1F09CF4892B2E
:10161000C9F5609118037091190380911A03909194
:101620001B03E12CF12C08EC11E420E030E040E752
:1016300051E426C082309105A1F0039791F022C0B9
:101640006091140370911503809116039091170314
:10165000E12CF12C0CE812E420E030E040EF51E402
:101660000FC060911003709111038091120390914B
:101670001303E12CF12C00E211E420E030E0A90199
:101680000E94CE091F910F91FF90EF900895409115
:101690006F035091700320916D0330916E034217D8
:1016A0005307B4F49091E8009570E1F39091E8004D
:1016B00092FD19C08093F10080916F0390917003A7
:1016C00001968F739927892B19F48EEF8093E80088
:1016D00080916F03909170030196909370038093B3
:1016E0006F0381E0089580E00895CF92DF92EF923A
:1016F000FF920F931F93CF93DF931F92CDB7DEB767
:10170000182F062FE42E862F880F8E5F99830E9454
:10171000470B83E00E94470BF12EC12E9981D92EF1
:101720008C2D8F19801798F4F601E7FE02C0849182
:1017300001C080810E94470B182F80E00E94470B58
:101740008123FFEFCF1ADF0A8111EACF01C081E0C8
:101750000F90DF91CF911F910F91FF90EF90DF904D
:10176000CF900895DF92EF92FF920F931F93CF9344
:10177000DF93D82E8A017B01E40EF51EEB01CE1516
:10178000DF0571F0D7FE03C0FE01849101C088819E
:101790000E94470B21968111F2CF8FEF9FEF01C07E
:1017A000C801DF91CF911F910F91FF90EF90DF90D3
:1017B0000895615030F02091F100FC0120830196E2
:1017C000F8CF289884E6809381030895CF92DF9222
:1017D000EF92FF920F931F93CF93DF936C017A01E7
:1017E0008B01C0E0D0E0CE15DF0589F0D8016D9106
:1017F0008D01D601ED91FC910190F081E02DC601A3
:101800000995892B11F47E0102C02196ECCFC70106
:10181000DF91CF911F910F91FF90EF90DF90CF90CC
:101820000895CF93DF931F92CDB7DEB76983DC01B4
:10183000ED91FC910280F381E02D41E050E0BE018A
:101840006F5F7F4F09950F90DF91CF91089583E0EF
:101850008093E9008091F200882319F08AE3809355
:10186000E80008950E948F1B0F931F93CF93DF937F
:101870001F92CDB7DEB782E0898342E450E06AE68A
:1018800071E080E80E94B20B0E949712DC01129670
:101890000D911C9113970115110569F0D801ED9177
:1018A000FC910280F381E02DBE016F5F7F4FC80184
:1018B000099597FF07C089810F90DF91CF911F9104
:1018C0000F910895F80100851185E5CF8F929F92C1
:1018D000AF92BF92CF92DF92EF92FF920F931F933E
:1018E000CF93DF935C016B017A0180910B01882318
:1018F00009F45BC080918203882309F456C080916B
:10190000730380FF05C08091E00082608093E00057
:10191000E70110E00AEF83E0882E9AE3992E2097E2
:10192000D9F10E94861281110AC0015009F43DC00C
:1019300061E070E080E090E00E94E213F0CF282F99
:1019400030E0C217D3070CF48C2F4FB7F894809275
:10195000E9009091E80095FF1DC0282F30E0C21BE0
:10196000D30BF601982F915020F081918093F100D4
:10197000FACFC20ED31E112319F09092E80009C0CD
:101980008091E80085FD06C09092E80011E0209764
:1019900009F010E04FBFC3CF1111C3CF5D9884E6AB
:1019A000809371031E141F0444F081E090E0F50160
:1019B0009383828380E090E001C0C701DF91CF91E3
:1019C0001F910F91FF90EF90DF90CF90BF90AF905D
:1019D0009F908F9008953FB7F89480917D039091E8
:1019E0007E03A0917F03B091800326B5A89B05C01C
:1019F0002F3F19F00196A11DB11D3FBFBA2FA92F8E
:101A0000982F8827820F911DA11DB11DBC01CD010A
:101A100042E0660F771F881F991F4A95D1F70895F6
:101A20002FB7F8946091790370917A0380917B03CA
:101A300090917C032FBF08951F920F920FB60F92C3
:101A400011242F933F938F939F93AF93BF938091D4
:101A5000790390917A03A0917B03B0917C0330913C
:101A6000780323E0230F2D3720F40196A11DB11D2B
:101A700005C026E8230F0296A11DB11D209378030F
:101A80008093790390937A03A0937B03B0937C03B4
:101A900080917D0390917E03A0917F03B09180039C
:101AA0000196A11DB11D80937D0390937E03A093A9
:101AB0007F03B0938003BF91AF919F918F913F912E
:101AC0002F910F900FBE0F901F9018951F920F929D
:101AD0000FB60F9211248F939F938091E100909104
:101AE000E100937F9093E10083FF0FC01092E90023
:101AF00091E09093EB001092EC0092E39093ED0054
:101B00001092820398E09093F00082FF20C093E04F
:101B10009093E9009091F200992319F09AE3909341
:101B2000E80090917103992339F0909171039150DD
:101B300090937103992389F190918103992339F04E
:101B400090918103915090938103992341F184FFF7
:101B500010C08091E2008E7E81608093E2008091CF
:101B6000E1008F7E8093E100809173038E7E80611F
:101B700011C080FF16C08091E2008E7E806180934C
:101B8000E2008091E1008E7E8093E10080917303FA
:101B90008E7E81608093730304C05D9ACDCF289AB6
:101BA000D6CF9F918F910F900FBE0F901F901895D9
:101BB0001F920F920FB60F921124CF92DF92EF92E5
:101BC000FF920F931F932F933F934F935F936F93C6
:101BD0007F938F939F93AF93BF93EF93FF93CF9395
:101BE000DF93CDB7DEB76C97DEBFCDBF1092E900B3
:101BF0008091E80083FFEDC168E0CE0145960E9428
:101C0000D90B82EF8093E8008D8987FF05C0909102
:101C1000E80090FFFCCF03C09EEF9093E800982F60
:101C2000907609F0C6C09E892F89188D91110CC03D
:101C3000803829F4809174038093F10002C01092DF
:101C4000F1001092F10048C1422F50E0512B913029
:101C500051F4811141C14130510509F03DC18091DC
:101C600074038D7F0BC0933061F4811135C1413015
:101C7000510509F031C1809174038260809374032F
:101C80002BC1953041F48091E80080FFFCCF2068A3
:101C90002093E30021C1963009F05FC0EB8CFC8CEF
:101CA0001092E9001092700310926F03123091F5B8
:101CB00010926E0310926D030E94340C99E0BE01E5
:101CC0006F5F7F4FDB01E92F1D92EA95E9F799835A
:101CD0001A8391E09E8390EA98879AEF99872091E2
:101CE0006F0330917003275F3F4F3C832B838D83BD
:101CF0001092E9001092700310926F03F0926E033D
:101D0000E0926D0349E050E080E00E94B20B0E9437
:101D1000340CE2C0F0926E03E0926D030E949712C1
:101D2000DC011296ED90FC901397E114F10409F494
:101D3000C0C0D701ED91FC910480F581E02DBE017A
:101D40006B5E7F4FC7010995009719F00CF0C4C076
:101D5000C7C0F701E084F184E8CF973009F4C0C030
:101D6000983021F481E08093F100B6C0993009F0F9
:101D7000B3C0837009F0B4C0E7E1F1E081E021E095
:101D800036E39081992361F08093E9002093EB0082
:101D900091919093EC003093ED008F5F873089F73D
:101DA0008EE78093EA001092EA008F898093820385
:101DB00093C08B8D9C8D1092E9001092700310924D
:101DC0006F0390936E0380936D03898D811156C0CC
:101DD0008E899D89913A59F4813209F081C047E09A
:101DE00050E064E071E080E00E94B20B75C0913277
:101DF00009F076C0833289F4888D90E0982F882787
:101E00002F89822BA0E0B0E0809300019093010124
:101E1000A0930201B09303015FC0803269F4809106
:101E2000E80082FFFCCF67E084E091E00E94D90BDC
:101E30008BEF8093E80006C0823209F04DC08F8995
:101E400080930B0180917203882319F0EEEFFAE082
:101E500002C0E0E0F8E08091040190910501A091BA
:101E60000601B0910701803B9440A105B10509F03E
:101E70007BC080910B0180FF93C076C00E949712B7
:101E8000DC0112960D911C9113970115110541F17A
:101E9000D801ED91FC910190F081E02DBE016B5EC7
:101EA0007F4FC8010995811117C0F8010085118580
:101EB000ECCF113009F44EC0133091F48F89882390
:101EC00009F445C0823081F440E860E18EEC91E095
:101ED0000E94750B882321F08EEF8093E80079C073
:101EE00081E28093EB0075C0813029F440E86BE01B
:101EF00082EC91E0EDCF833099F70E949712DC01DC
:101F00001296ED90FC9013978E010F5F1F4F6801A2
:101F1000E114F10479F0D701ED91FC910680F7818D
:101F2000E02DB801C7010995080F111DF701E084E4
:101F3000F184EECFD8011C92F60101900020E9F760
:101F40003197BF016C197D0940E0C601C1CF6CEA31
:101F500071E002C060EB71E06115710509F2FB01EF
:101F6000449150E080E840CF0FB6F894A895809156
:101F70006000886180936000109260000FBEA89599
:101F8000EE3F2AE0F20739F08091FE0A9091FF0AB5
:101F900091838083A1CF1092FF0A1092FE0A9CCFFA
:101FA000EE3F8AE0F80731F0808191819093FF0A3B
:101FB0008093FE0A87E797E7918380839BE088E11F
:101FC0000FB6F894A895809360000FBE90936000C0
:101FD00083CF6C960FB6F894DEBF0FBECDBFDF91F6
:101FE000CF91FF91EF91BF91AF919F918F917F9191
:101FF0006F915F914F913F912F911F910F91FF90A2
:10200000EF90DF90CF900F900FBE0F901F9018951C
:10201000E091F003F091F1030190F081E02D682F41
:1020200080EF93E00994BC01009791F0FC010190CE
:102030000020E9F73197AF01481B590BE091F003FD
:10204000F091F1030280F381E02D80EF93E0099499
:1020500080E090E00895CF93DF930E941310EC018D
:1020600083EB91E00E9413108C0F9D1FDF91CF91A5
:1020700008959091CD039111FCCF813208F080E258
:1020800091E09093CD039093CC032FEF2093CB035B
:102090001092CA03280F2093C9039093C80390910C
:1020A000C80390689093C8039091C703913061F47E
:1020B0001092C7039091C8039093BB009091BC000D
:1020C00093FDF8CF95EC01C095EE9093BC009091F4
:1020D000CD039130E1F39091CA03981710F48091E9
:1020E000CA03A7EAB3E020ED33E0F9019E2F921B6B
:1020F000981718F49D919193F9CF1092CF03809384
:10210000CE0308952091A6039091A503213208F0F3
:102110004AC08091CD038111FCCF32E03093CD03D2
:1021200031E03093CC033FEF3093CB031092CA03DE
:102130002093C903A5E8B3E047EA53E0FA013E2F34
:10214000341B321718F43D913193F9CF1092C80324
:102150002091C803990F922B9093C8039091C703C5
:10216000913061F41092C7039091C8039093BB0023
:102170009091BC0093FDF8CF95EC01C095EE909343
:10218000BC009091CD039230E1F39091CB039F3F3F
:1021900079F08091CB03803241F08091CB03803382
:1021A00031F084E005C081E003C082E001C083E03B
:1021B000109284031092A603109283030895682F4F
:1021C00080E494E00C942F028F929F92AF92BF9282
:1021D0000F931F93CF93DF93CDB7DEB7A1970FB6C1
:1021E000F894DEBF0FBECDBF19A2423008F44AE01A
:1021F0008E010F5D1F4F842E912CA12CB12CA501B7
:1022000094010E94671BE62FB901CA010150110910
:10221000EA3014F4E05D01C0E95CD801EC93232BB3
:10222000242B252B61F7C8010E941310A1960FB62D
:10223000F894DEBF0FBECDBFDF91CF911F910F91FC
:10224000BF90AF909F908F9008954F925F926F9242
:102250007F928F929F92AF92BF92CF92DF92EF9236
:10226000FF926B017C01B42E9B01AC010E942D1AE0
:10227000882319F081EE92E027C026013701E89407
:1022800077F82FEF3FEF4FE75FE7C301B2010E94FE
:102290002D1A81110DC02FEF3FEF4FE75FE7C3010C
:1022A000B2010E940C1818161CF485EE92E00CC0C6
:1022B0002FEF3FEF4FE75FE4C701B6010E946B19B4
:1022C000181684F489EE92E0FF90EF90DF90CF90A3
:1022D000BF90AF909F908F907F906F905F904F9046
:1022E0000C9413102FEF3FEF4FE75FECC701B601DF
:1022F0000E940C1887FDE6CF20E030E0A901C7015D
:10230000B6010E940C1887FF09C08DE20E940810D8
:102310004C01F7FAF094F7F8F09402C0812C912C5C
:10232000A12C60E070E080E09FE3AB1441F020E07E
:1023300030E040E251E40E941118A394F6CF9B01D3
:10234000AC01C701B6010E94A0172B013C010E94FD
:102350008A186B017C010E94B9189B01AC01C30172
:10236000B2010E949F172B013C014AE0C701B60150
:102370000E94E4107C01E80CF91CBB2029F08EE2DD
:102380000E940810E80EF91EDB2CDD2021F120E070
:1023900030E040E251E4C301B2010E9470192B0108
:1023A0003C010E948A184B01A12CB12C4AE0C501C6
:1023B000B4010E94E410E80EF91EC501B4010E94A8
:1023C000B9189B01AC01C301B2010E949F172B01F8
:1023D0003C01DA94DACFC701FF90EF90DF90CF9005
:1023E000BF90AF909F908F907F906F905F904F9035
:1023F00008950C941310CF92DF92EF92FF92CF9337
:10240000DF9397FF19C06B017C018DE20E940810D9
:10241000EC0166277727CB016C197D098E099F098E
:102420004AE00E94E4108C0F9D1FDF91CF91FF9036
:10243000EF90DF90CF9008954AE0DF91CF91FF9029
:10244000EF90DF90CF900C94E410CF93DF93ADE743
:10245000B4E0FD01C191D191209741F049895A8999
:10246000EC0129893A894217530711F1D4E0EB397D
:10247000FD0781F720E030E04D915D91452B89F417
:10248000220F331FF901E659FB4F948B838B809108
:102490009B0490919C04019690939C0480939B04D0
:1024A00007C02F5F3F4F2F30310531F780E001C06B
:1024B00081E0DF91CF910895FC0180918203811129
:1024C00003C08FEF9FEF08959FB7F89482E0809349
:1024D000E9002091F20030E01216130614F421E016
:1024E00030E02115310559F0289884E68093810366
:1024F0008091F10080838091F200882319F09FBFC2
:10250000C90108958BE68093E800F9CF2FB7F894BE
:1025100083E08093E9009091E800892F807295FF15
:1025200004C09091F20080E4891B2FBF0895809130
:10253000F90481110DC082E08093F50484E080935A
:10254000F6041092F8041092F70481E08093F904E5
:1025500085EF94E00895362F90E0FC01E550FE4FA2
:102560004491FC01E95BFD4F2491FC01E85DFD4FC6
:102570008491882309F451C04423E1F150E0FA0129
:102580003197EF30F105B0F5EA5AFF4F0C94891BF3
:10259000909180009F7707C0909180009F7D03C03D
:1025A00090918000977F9093800024C094B59F778E
:1025B00002C094B59F7D94BD1DC0909190009F77FF
:1025C00007C0909190009F7D03C090919000977FED
:1025D000909390000FC09091C0009F7703C090919E
:1025E000C0009F7D9093C00005C09091C200977F6E
:1025F0009093C200E82FF0E0EE0FFF1FE351FE4F73
:10260000A591B4918FB7F894EC91311103C0209546
:102610002E2301C02E2B2C938FBF0895CF93DF93D1
:1026200090E0FC01E95BFD4F2491FC01E85DFD4F6A
:102630008491882361F190E0880F991FFC01E15299
:10264000FE4FC591D491FC01E351FE4FA591B49189
:10265000611109C09FB7F8948881209582238883EF
:10266000EC912E230BC0623061F49FB7F89438814F
:10267000822F809583238883EC912E2B2C939FBFF0
:1026800006C08FB7F894E8812E2B28838FBFDF9187
:10269000CF9108951F93CF93DF93182FEB0161E043
:1026A0000E940E13209711F460E004C0CF3FD105C3
:1026B00039F461E0812FDF91CF911F910C94AB121F
:1026C000E12FF0E0E550FE4FE4914E2F50E0FA018B
:1026D0003197EF30F10508F06CC0EB59FF4F0C94C7
:1026E000891B84B5806884BDC7BD68C084B580621D
:1026F00084BDC8BD63C080918000806880938000E5
:10270000D0938900C093880059C080918000806276
:1027100080938000D0938B00C0938A004FC080913B
:102720008000886080938000D0938D00C0938C00DF
:1027300045C080919000806880939000D09399006C
:10274000C09398003BC0809190008062809390007D
:10275000D0939B00C0939A0031C080919000886014
:1027600080939000D0939D00C0939C0027C08091DF
:10277000C00080688093C0008091C0008F7B8093F0
:10278000C000C093CF001AC08091C00080628093C7
:10279000C000C093D00012C08091C20088608093B6
:1027A000C2008091C2008B7F8093C200C093D20090
:1027B00005C0C038D1050CF07CCF76CFDF91CF912A
:1027C0001F9108958F929F92AF92BF92CF92DF9206
:1027D000EF92FF926B017C010E94EB0C4B015C01BC
:1027E000C114D104E104F104F1F00E94EB0CDC010E
:1027F000CB0188199909AA09BB09883E9340A10514
:10280000B10570F321E0C21AD108E108F10888EEA1
:10281000880E83E0981EA11CB11CC114D104E104F0
:10282000F10419F7DDCFFF90EF90DF90CF90BF90CC
:10283000AF909F908F900895CF92DF92EF92FF928A
:102840000F931F93E82FF92F05C00150110921099B
:10285000310961F1908196239417B9F305C00150B5
:1028600011092109310911F1908196239413F7CFB1
:10287000C12CD12CE12CF12C0AC08FEFC81AD80A38
:10288000E80AF80A0C151D052E053F0579F0808130
:102890008623841791F36C2D7D2D8E2D9F2D1F91F6
:1028A0000F91FF90EF90DF90CF90089560E070E07F
:1028B00080E090E01F910F91FF90EF90DF90CF901C
:1028C0000895789484B5826084BD84B5816084BDA8
:1028D00085B5826085BD85B5816085BD80916E00BE
:1028E000816080936E0010928100809181008260EF
:1028F000809381008091810081608093810080912C
:10290000800081608093800080919100826080933C
:10291000910080919100816080939100809190005E
:102920008160809390008091C10084608093C10099
:102930008091C10082608093C1008091C10081605C
:102940008093C1008091C30081608093C300809117
:10295000C00082608093C0008091C200816080933B
:10296000C20080917A00846080937A0080917A001E
:10297000826080937A0080917A00816080937A00EF
:1029800080917A00806880937A001092820310927E
:102990007403109273038091D70081608093D700F5
:1029A00080EA8093D80089B5806189BD89B582604D
:1029B00089BD09B400FEFDCF61E070E080E090E0E9
:1029C0000E94E2138091D8008F7C80618093D800B0
:1029D0008091E000807F8093E0008091E1008E7E16
:1029E0008093E1008DE08093E200559A209AEEEF0B
:1029F000FFE7859194918B3F9C4D19F481E0809382
:102A000072038FEF9FEF9093FD038093FC038AE89E
:102A100092E00E942B108CE992E00E94F91185EA65
:102A200092E00E94F91185E092E00E94F9118EEA8D
:102A300092E00E942B108AEB92E00E942B1061E042
:102A400089E00E940E1361E086E00E940E1361E0AF
:102A500085E00E940E134FEF50E060E070E080E0F0
:102A600090E00E94AC0968EB7BE080E090E00E947F
:102A7000E21380E18093810010928000C1E0C09356
:102A8000770380E49FE1909376038093750390939E
:102A900087008093860081E1809381008EE592E03B
:102AA00090936C0380936B03C0936F0088EC92E06B
:102AB0000E942B101092CF031092CE031092840329
:102AC0001092A6031092CD03C093CC031092C703BB
:102AD00061E082E00E94AB1261E083E00E94AB12F1
:102AE0008091B9008E7F8093B9008091B9008D7F6D
:102AF0008093B90088E48093B80085E48093BC009B
:102B0000C093830310E41093A503109284031092E2
:102B1000A6038EEF90E00E94DF100E9482106FE00B
:102B200070E080E090E00E94E213C0938303109372
:102B3000A503109284031092A60387EE90E00E94F2
:102B4000DF100E94821081E090E00E94391080E442
:102B500094E00E94AD018FEF9FEFDC018093580459
:102B600090935904A0935A04B0935B04C093E60475
:102B7000C093D304C093C004C093AD0448EE53E0A7
:102B800060E070E04093D8045093D9046093DA0475
:102B90007093DB048091DC049091DD04A091DE044D
:102BA000B091DF0488519C4FAF4FBF4F8093E0043A
:102BB0009093E104A093E204B093E30401E010E0F9
:102BC00020E030E00093C5041093C6042093C704AE
:102BD0003093C8048091C9049091CA04A091CB0499
:102BE000B091CC040196A11DB11D8093CD049093AA
:102BF000CE04A093CF04B093D0040093B2041093FA
:102C0000B3042093B4043093B5048091B60490913A
:102C1000B704A091B804B091B9040196A11DB11DEB
:102C20008093BA049093BB04A093BC04B093BD04FA
:102C300040939F045093A0046093A1047093A20456
:102C40008091A3049091A404A091A504B091A6043E
:102C500088519C4FAF4FBF4F8093A7049093A80417
:102C6000A093A904B093AA048AED95E09093E5049B
:102C70008093E40481E793E09093D2048093D1049D
:102C800088EE9AE09093BF048093BE048DE693E0B3
:102C90009093AC048093AB0486ED94E00E942512DF
:102CA00083EC94E00E94251280EB94E00E942512B0
:102CB0008DE994E00E9425120E94E00A68EC70E021
:102CC00080E090E00E94E21340E050E06FEF70E09F
:102CD00080E090E00E94AC0964E670E080E090E063
:102CE0000E94E2130E94E00A64E670E080E090E057
:102CF0000E94E21340E050E06FEF70E080E090E06F
:102D00000E94AC0964E670E080E090E00E94E2136B
:102D10000E94E00A85ED92E00E942B1000E010E096
:102D20008AE694E00E94E00201151105C9F30E94B1
:102D30000000F6CF1092F3031092F20388EE93E0B6
:102D4000A0E0B0E08093F4039093F503A093F60322
:102D5000B093F70321E231E03093F1032093F003C5
:102D60002FEF3FEF3093FD032093FC0310924304B9
:102D7000109242048093440490934504A093460427
:102D8000B093470483E391E090934104809340041F
:102D90000E94100D6093E9047093EA048093EB04A1
:102DA0009093EC0420E030E0A90160E070E081E065
:102DB00095E00E94190820E030E0A90160E070E091
:102DC00086ED94E00E94190820E030E0A90160E05F
:102DD00070E083EC94E00E94190820E030E0A90143
:102DE00060E070E080EB94E00E94190820E030E0A1
:102DF000A90160E070E08DE994E00E94190820E0EC
:102E000030E0A90160E070E08AE694E00E941908D1
:102E100085E491E090936B0480936A0410929C0483
:102E200010929B04EDE7F4E01192119284E0EB39EB
:102E3000F807D1F710926C0410926D0410926E0492
:102E400010926F048091700490917104A0917204AB
:102E5000B09173048093740490937504A0937604E6
:102E6000B093770481E090E090934D0480934C04FC
:102E700086E391E0909353048093520480EE95E7AB
:102E8000A9E0B0E08093540490935504A0935604B5
:102E9000B093570480E29EE4A0E0B0E08093580431
:102EA00090935904A0935A04B0935B0461E08AE0C4
:102EB0000E940E1360E08FE00E940E1360E08AE033
:102EC0000E94AB12E1E5F2E0E491E0936404E2E3F6
:102ED000F2E0E491F0E0EE0FFF1FE65EFD4F85911A
:102EE00094919093660480936504E6E5F2E0E491A2
:102EF000E0936704E7E3F2E0E491F0E0EE0FFF1FF8
:102F0000E65EFD4F859194919093690480936804E7
:102F10008FEF9FEFAFEFBFE080934E0490934F048D
:102F2000A0935004B09351040E94100D60935C0470
:102F300070935D0480935E0490935F0408955058ED
:102F4000BB27AA270E94B7170C9431190E94231996
:102F500038F00E942A1920F039F49F3F19F426F422
:102F60000C9420190EF4E095E7FB0C941A19E92F44
:102F70000E94421958F3BA1762077307840795072E
:102F800020F079F4A6F50C9464190EF4E0950B2E5C
:102F9000BA2FA02D0B01B90190010C01CA01A001AB
:102FA0001124FF27591B99F0593F50F4503E68F106
:102FB0001A16F040A22F232F342F4427585FF3CF47
:102FC000469537952795A795F0405395C9F77EF418
:102FD0001F16BA0B620B730B840BBAF09150A1F061
:102FE000FF0FBB1F661F771F881FC2F70EC0BA0FE7
:102FF000621F731F841F48F4879577956795B7956F
:10300000F7959E3F08F0B0CF9395880F08F0992769
:10301000EE0F9795879508950E94F61808F481E0C1
:1030200008950E9425180C9431190E942A1958F00D
:103030000E94231940F029F45F3F29F00C941A19DB
:1030400051110C9465190C9420190E94421968F3CF
:103050009923B1F3552391F3951B550BBB27AA2751
:1030600062177307840738F09F5F5F4F220F331F8B
:10307000441FAA1FA9F335D00E2E3AF0E0E832D053
:1030800091505040E695001CCAF72BD0FE2F29D056
:10309000660F771F881FBB1F261737074807AB0728
:1030A000B0E809F0BB0B802DBF01FF2793585F4F9D
:1030B0003AF09E3F510578F00C941A190C9465195A
:1030C0005F3FE4F3983ED4F3869577956795B7957F
:1030D000F7959F5FC9F7880F911D9695879597F98A
:1030E0000895E1E0660F771F881FBB1F6217730703
:1030F0008407BA0720F0621B730B840BBA0BEE1F18
:1031000088F7E09508950E948A186894B1110C948C
:10311000651908950E944A1988F09F5798F0B92FB1
:103120009927B751B0F0E1F0660F771F881F991FFC
:103130001AF0BA95C9F714C0B13091F00E94641921
:10314000B1E008950C946419672F782F8827B85F31
:1031500039F0B93FCCF3869577956795B395D9F754
:103160003EF490958095709561957F4F8F4F9F4F5E
:103170000895E89409C097FB3EF49095809570956A
:1031800061957F4F8F4F9F4F9923A9F0F92F96E9B3
:10319000BB279395F695879577956795B795F11128
:1031A000F8CFFAF4BB0F11F460FF1BC06F5F7F4FC5
:1031B0008F4F9F4F16C0882311F096E911C07723D7
:1031C00021F09EE8872F762F05C0662371F096E8E0
:1031D000862F70E060E02AF09A95660F771F881FAF
:1031E000DAF7880F9695879597F90895990F000853
:1031F000550FAA0BE0E8FEEF16161706E807F907C9
:10320000C0F012161306E407F50798F0621B730B63
:10321000840B950B39F40A2661F0232B242B252BE4
:1032200021F408950A2609F4A140A6958FEF811D87
:10323000811D089597F99F6780E870E060E0089528
:103240009FEF80EC089500240A94161617061806BE
:103250000906089500240A9412161306140605069A
:103260000895092E0394000C11F4882352F0BB0F2B
:1032700040F4BF2B11F460FF04C06F5F7F4F8F4F8E
:103280009F4F089557FD9058440F551F59F05F3FC9
:1032900071F04795880F97FB991F61F09F3F79F078
:1032A00087950895121613061406551FF2CF4695FA
:1032B000F1DF08C0161617061806991FF1CF86957C
:1032C0007105610508940895E894BB276627772760
:1032D000CB0197F908950E94F61808F48FEF08952E
:1032E0000E9483190C9431190E94231938F00E940E
:1032F0002A1920F0952311F00C941A190C94201916
:1033000011240C9465190E94421970F3959FC1F322
:10331000950F50E0551F629FF001729FBB27F00D83
:10332000B11D639FAA27F00DB11DAA1F649F6627D8
:10333000B00DA11D661F829F2227B00DA11D621F27
:10334000739FB00DA11D621F839FA00D611D221FE1
:10335000749F3327A00D611D231F849F600D211DC5
:10336000822F762F6A2F11249F5750409AF0F1F048
:1033700088234AF0EE0FFF1FBB1F661F771F881FB1
:1033800091505040A9F79E3F510580F00C941A19B6
:103390000C9465195F3FE4F3983ED4F386957795D6
:1033A0006795B795F795E7959F5FC1F7FE2B880F57
:1033B000911D9695879597F90895FA01EE0FFF1FD5
:1033C000309621053105A1F16115710561F4803850
:1033D000BFE39B0749F168949038810561F080381C
:1033E000BFEF9B0741F099234AF5FF3FE105310507
:1033F000210519F1E8940894E795D901AA2329F445
:10340000AB2FBE2FF85FD0F310C0FF5F70F4A6950E
:10341000E0F7F73950F019F0FF3A38F49F779F93AF
:103420000DD00F9007FC9058089546F00C94201989
:1034300060E070E080E89FE308954FE79F775F9337
:103440004F933F932F930E94DD1A2F913F914F91FD
:103450005F910E9470190C943A1A0E94F618880B1A
:10346000990B089529F416F00C941A190C94641908
:103470000C9420190E944A19A8F39638A0F707F86F
:103480000F92E8942BE33AEA48EB5FE70E94861933
:103490000F920F920F924DB75EB70F920E94251BAD
:1034A000E8EEF0E00E946C1A4F915F91EF91FF916E
:1034B000E595EE1FFF1F49F0FE57E0684427EE0F29
:1034C000441FFA95E1F74195550B0E949F1A0F9002
:1034D00007FE0C94931A0895DF93CF931F930F93D5
:1034E000FF92EF92DF927B018C01689406C0DA2E86
:1034F000EF010E948319FE01E894A5912591359171
:1035000045915591A6F3EF010E94B717FE0197016F
:10351000A801DA9469F7DF90EF90FF900F911F9167
:10352000CF91DF9108959B01AC0160E070E080E8ED
:103530009FE30C9411180C941A190C94591B0E94B7
:103540004A19D8F39923C9F3940F511DA3F391504D
:10355000504094F059F0882332F0660F771F881F8F
:1035600091505040C1F79E3F51052CF7880F911D97
:103570009695879597F908955F3FACF0983E9CF03B
:10358000BB27869577956795B79508F4B1609395B5
:10359000C1F7BB0F58F711F460FFE8CF6F5F7F4FA3
:1035A0008F4F9F4FE3CF0C94651916F00C94591B65
:1035B0000C94201968940C941A190E944A19A8F3C3
:1035C0009923C1F3AEF3DF93CF931F930F93FF9231
:1035D000C92FDD2788232AF02197660F771F881FC0
:1035E000DAF720E030E040E85FEB9FE3883920F035
:1035F000803E38F021968F770E94A017E0E1F1E03D
:1036000004C00E94A017EDE3F1E00E946C1A8B0148
:10361000BE01EC01FB2E6F5771097595771F880B62
:10362000990B0E94BB1828E132E741E35FE30E9457
:103630008319AF2D9801AE01FF900F911F91CF918B
:10364000DF910E94B7170C943119FA01DC01AA0F1F
:10365000BB1F9B01AC01BF5728F422273327442707
:10366000507820C0B75190F4AB2F00244695379581
:103670002795011CA395D2F3002071F0220F331F70
:10368000441FB395DAF30ED00C949F176130710587
:10369000A0E88A07B94630F49B01AC01662777277A
:1036A00088279078309621F020833183428353839A
:1036B00008959F3F31F0915020F487957795679555
:1036C000B795880F911D9695879597F90895A1E272
:1036D0001A2EAA1BBB1BFD010DC0AA1FBB1FEE1F8C
:1036E000FF1FA217B307E407F50720F0A21BB30BD7
:1036F000E40BF50B661F771F881F991F1A9469F753
:1037000060957095809590959B01AC01BD01CF01AE
:103710000895EE0FFF1F0590F491E02D099481E0CC
:0C37200090E0F8940C94941BF894FFCFF8
:10372C00FFFFFFFF00E100000000000000000000B0
:10373C008B017801BD0200C18081000000000000F7
:10374C0000110C660C7702270C5E017B02990200BB
:10375C000000002F02FF01CA019D01C101AD019EB5
:10376C0001000000008B017801E0024C6F6E6720B5
:10377C00746F7563682021006C6F6F705F64617487
:10378C006153656E64006C6F6F705F726561646924
:10379C006E6755736572496E74657261637400531C
:1037AC00686F727420746F756368202100746F7475
:1037BC00616C203A200020707573685F64757261CB
:1037CC0074696F6E203A20002070757368656420F0
:1037DC003A20000D0A006C6F6F705F72656164694E
:1037EC006E6753656E736F72730050504434324E73
:1037FC00535F6C6F6F7020282063757272656E74E6
:10380C0074696D65203A2000202F20002029006C5F
:10381C006F7770756C73656F63637570616E6379C8
:10382C00203A20002C2000726174696F203A20002D
:10383C00636F6E63656E74726174696F6E203A208B
:10384C00004169724E6F7465203A2000485455321D
:10385C0031445F6C6F6F70002054656D70657261E0
:10386C0074757265203A20002043002048756D69FC
:10387C0064697479203A200020250052203A2000F7
:10388C002047203A20002042203A20002056414C6C
:10389C0055455F323535203A20006C6F6F705F7381
:1038AC00657474696E674C45440050726F6A656349
:1038BC0074203A2045676773746961004275696CBE
:1038CC0064203A200031373A35303A3235004175B0
:1038DC006720313320323031370053657474696E90
:1038EC00672075702E2E2E004854553231445F736C
:1038FC00657475700053657474656420757020214F
:0E390C00006E616E00696E66006F76660000E8
:00000001FF
